{
  "contractName": "PearlZZExchange",
  "abi": [
    {
      "inputs": [
        {
          "internalType": "address[]",
          "name": "_accounts",
          "type": "address[]"
        }
      ],
      "stateMutability": "nonpayable",
      "type": "constructor"
    },
    {
      "anonymous": false,
      "inputs": [
        {
          "indexed": false,
          "internalType": "address",
          "name": "addressValue",
          "type": "address"
        }
      ],
      "name": "AddressValue",
      "type": "event"
    },
    {
      "anonymous": false,
      "inputs": [
        {
          "components": [
            {
              "internalType": "uint256",
              "name": "orderId",
              "type": "uint256"
            },
            {
              "internalType": "string",
              "name": "addToIssuer",
              "type": "string"
            },
            {
              "internalType": "string",
              "name": "addToAccount",
              "type": "string"
            },
            {
              "internalType": "string",
              "name": "addToUser",
              "type": "string"
            },
            {
              "internalType": "uint256",
              "name": "numOfPoints",
              "type": "uint256"
            },
            {
              "internalType": "uint256",
              "name": "buyOrderTimestamp",
              "type": "uint256"
            }
          ],
          "indexed": false,
          "internalType": "struct PearlZZExchange.BuyOrderStruct",
          "name": "buyOrder",
          "type": "tuple"
        }
      ],
      "name": "BuyOrderEvent",
      "type": "event"
    },
    {
      "anonymous": false,
      "inputs": [
        {
          "components": [
            {
              "internalType": "uint256",
              "name": "orderId",
              "type": "uint256"
            },
            {
              "internalType": "string",
              "name": "addToIssuer",
              "type": "string"
            },
            {
              "internalType": "string",
              "name": "addToAccount",
              "type": "string"
            },
            {
              "internalType": "string",
              "name": "addToUser",
              "type": "string"
            },
            {
              "internalType": "uint256",
              "name": "numOfPoints",
              "type": "uint256"
            },
            {
              "internalType": "uint256",
              "name": "buyOrderTimestamp",
              "type": "uint256"
            }
          ],
          "indexed": false,
          "internalType": "struct PearlZZExchange.BuyOrderStruct",
          "name": "buyOrder",
          "type": "tuple"
        }
      ],
      "name": "CancelledBuyOrderEvent",
      "type": "event"
    },
    {
      "anonymous": false,
      "inputs": [
        {
          "components": [
            {
              "internalType": "uint256",
              "name": "orderId",
              "type": "uint256"
            },
            {
              "internalType": "string",
              "name": "takeFromIssuer",
              "type": "string"
            },
            {
              "internalType": "string",
              "name": "takeFromAccount",
              "type": "string"
            },
            {
              "internalType": "string",
              "name": "takeFromUser",
              "type": "string"
            },
            {
              "internalType": "uint256",
              "name": "numOfPoints",
              "type": "uint256"
            },
            {
              "internalType": "uint256",
              "name": "sellOrderTimestamp",
              "type": "uint256"
            }
          ],
          "indexed": false,
          "internalType": "struct PearlZZExchange.SellOrderStruct",
          "name": "sellOrder",
          "type": "tuple"
        }
      ],
      "name": "CancelledSellOrderEvent",
      "type": "event"
    },
    {
      "anonymous": false,
      "inputs": [
        {
          "indexed": false,
          "internalType": "uint256",
          "name": "buyOrderId",
          "type": "uint256"
        },
        {
          "indexed": false,
          "internalType": "uint256",
          "name": "sellOrderId",
          "type": "uint256"
        },
        {
          "indexed": false,
          "internalType": "uint256",
          "name": "fulfilledTimestamp",
          "type": "uint256"
        }
      ],
      "name": "FulfilledBuyOrderEvent",
      "type": "event"
    },
    {
      "anonymous": false,
      "inputs": [
        {
          "indexed": false,
          "internalType": "uint256",
          "name": "sellOrderId",
          "type": "uint256"
        },
        {
          "indexed": false,
          "internalType": "uint256",
          "name": "buyOrderId",
          "type": "uint256"
        },
        {
          "indexed": false,
          "internalType": "uint256",
          "name": "fulfilledTimestamp",
          "type": "uint256"
        }
      ],
      "name": "FulfilledSellOrderEvent",
      "type": "event"
    },
    {
      "anonymous": false,
      "inputs": [
        {
          "indexed": true,
          "internalType": "address",
          "name": "previousOwner",
          "type": "address"
        },
        {
          "indexed": true,
          "internalType": "address",
          "name": "newOwner",
          "type": "address"
        }
      ],
      "name": "OwnershipTransferred",
      "type": "event"
    },
    {
      "anonymous": false,
      "inputs": [
        {
          "components": [
            {
              "internalType": "uint256",
              "name": "orderId",
              "type": "uint256"
            },
            {
              "internalType": "string",
              "name": "takeFromIssuer",
              "type": "string"
            },
            {
              "internalType": "string",
              "name": "takeFromAccount",
              "type": "string"
            },
            {
              "internalType": "string",
              "name": "takeFromUser",
              "type": "string"
            },
            {
              "internalType": "uint256",
              "name": "numOfPoints",
              "type": "uint256"
            },
            {
              "internalType": "uint256",
              "name": "sellOrderTimestamp",
              "type": "uint256"
            }
          ],
          "indexed": false,
          "internalType": "struct PearlZZExchange.SellOrderStruct",
          "name": "sellOrder",
          "type": "tuple"
        }
      ],
      "name": "SellOrderEvent",
      "type": "event"
    },
    {
      "anonymous": false,
      "inputs": [
        {
          "indexed": false,
          "internalType": "address[]",
          "name": "_accounts",
          "type": "address[]"
        }
      ],
      "name": "SetAccountsEvent",
      "type": "event"
    },
    {
      "anonymous": false,
      "inputs": [
        {
          "indexed": false,
          "internalType": "string",
          "name": "stringValue",
          "type": "string"
        }
      ],
      "name": "StrValue",
      "type": "event"
    },
    {
      "anonymous": false,
      "inputs": [
        {
          "indexed": false,
          "internalType": "uint256",
          "name": "buyOrderId",
          "type": "uint256"
        },
        {
          "indexed": false,
          "internalType": "uint256",
          "name": "sellOrderId",
          "type": "uint256"
        },
        {
          "indexed": false,
          "internalType": "uint256",
          "name": "transferTimestamp",
          "type": "uint256"
        }
      ],
      "name": "TransferOrderEvent",
      "type": "event"
    },
    {
      "anonymous": false,
      "inputs": [
        {
          "indexed": false,
          "internalType": "uint256",
          "name": "uintValue",
          "type": "uint256"
        }
      ],
      "name": "UintValue",
      "type": "event"
    },
    {
      "stateMutability": "nonpayable",
      "type": "fallback"
    },
    {
      "inputs": [
        {
          "internalType": "uint256",
          "name": "",
          "type": "uint256"
        }
      ],
      "name": "accounts",
      "outputs": [
        {
          "internalType": "address",
          "name": "",
          "type": "address"
        }
      ],
      "stateMutability": "view",
      "type": "function",
      "constant": true
    },
    {
      "inputs": [
        {
          "internalType": "uint256",
          "name": "",
          "type": "uint256"
        }
      ],
      "name": "buyOrders",
      "outputs": [
        {
          "internalType": "uint256",
          "name": "orderId",
          "type": "uint256"
        },
        {
          "internalType": "string",
          "name": "addToIssuer",
          "type": "string"
        },
        {
          "internalType": "string",
          "name": "addToAccount",
          "type": "string"
        },
        {
          "internalType": "string",
          "name": "addToUser",
          "type": "string"
        },
        {
          "internalType": "uint256",
          "name": "numOfPoints",
          "type": "uint256"
        },
        {
          "internalType": "uint256",
          "name": "buyOrderTimestamp",
          "type": "uint256"
        }
      ],
      "stateMutability": "view",
      "type": "function",
      "constant": true
    },
    {
      "inputs": [
        {
          "internalType": "uint256",
          "name": "",
          "type": "uint256"
        }
      ],
      "name": "buyOrdersCancelled",
      "outputs": [
        {
          "internalType": "bool",
          "name": "",
          "type": "bool"
        }
      ],
      "stateMutability": "view",
      "type": "function",
      "constant": true
    },
    {
      "inputs": [
        {
          "internalType": "uint256",
          "name": "",
          "type": "uint256"
        }
      ],
      "name": "buyOrdersFulfilled",
      "outputs": [
        {
          "internalType": "bool",
          "name": "",
          "type": "bool"
        }
      ],
      "stateMutability": "view",
      "type": "function",
      "constant": true
    },
    {
      "inputs": [],
      "name": "numOfBuyOrders",
      "outputs": [
        {
          "internalType": "uint256",
          "name": "",
          "type": "uint256"
        }
      ],
      "stateMutability": "view",
      "type": "function",
      "constant": true
    },
    {
      "inputs": [],
      "name": "numOfFulfilledOrders",
      "outputs": [
        {
          "internalType": "uint256",
          "name": "",
          "type": "uint256"
        }
      ],
      "stateMutability": "view",
      "type": "function",
      "constant": true
    },
    {
      "inputs": [],
      "name": "numOfSellOrders",
      "outputs": [
        {
          "internalType": "uint256",
          "name": "",
          "type": "uint256"
        }
      ],
      "stateMutability": "view",
      "type": "function",
      "constant": true
    },
    {
      "inputs": [],
      "name": "owner",
      "outputs": [
        {
          "internalType": "address",
          "name": "",
          "type": "address"
        }
      ],
      "stateMutability": "view",
      "type": "function",
      "constant": true
    },
    {
      "inputs": [],
      "name": "pearlzzToken",
      "outputs": [
        {
          "internalType": "contract PearlZZToken",
          "name": "",
          "type": "address"
        }
      ],
      "stateMutability": "view",
      "type": "function",
      "constant": true
    },
    {
      "inputs": [],
      "name": "renounceOwnership",
      "outputs": [],
      "stateMutability": "nonpayable",
      "type": "function"
    },
    {
      "inputs": [
        {
          "internalType": "uint256",
          "name": "",
          "type": "uint256"
        }
      ],
      "name": "sellOrders",
      "outputs": [
        {
          "internalType": "uint256",
          "name": "orderId",
          "type": "uint256"
        },
        {
          "internalType": "string",
          "name": "takeFromIssuer",
          "type": "string"
        },
        {
          "internalType": "string",
          "name": "takeFromAccount",
          "type": "string"
        },
        {
          "internalType": "string",
          "name": "takeFromUser",
          "type": "string"
        },
        {
          "internalType": "uint256",
          "name": "numOfPoints",
          "type": "uint256"
        },
        {
          "internalType": "uint256",
          "name": "sellOrderTimestamp",
          "type": "uint256"
        }
      ],
      "stateMutability": "view",
      "type": "function",
      "constant": true
    },
    {
      "inputs": [
        {
          "internalType": "uint256",
          "name": "",
          "type": "uint256"
        }
      ],
      "name": "sellOrdersCancelled",
      "outputs": [
        {
          "internalType": "bool",
          "name": "",
          "type": "bool"
        }
      ],
      "stateMutability": "view",
      "type": "function",
      "constant": true
    },
    {
      "inputs": [
        {
          "internalType": "uint256",
          "name": "",
          "type": "uint256"
        }
      ],
      "name": "sellOrdersFulfilled",
      "outputs": [
        {
          "internalType": "bool",
          "name": "",
          "type": "bool"
        }
      ],
      "stateMutability": "view",
      "type": "function",
      "constant": true
    },
    {
      "inputs": [
        {
          "internalType": "address",
          "name": "newOwner",
          "type": "address"
        }
      ],
      "name": "transferOwnership",
      "outputs": [],
      "stateMutability": "nonpayable",
      "type": "function"
    },
    {
      "inputs": [
        {
          "internalType": "string",
          "name": "addToIssuer",
          "type": "string"
        },
        {
          "internalType": "string",
          "name": "addToAccount",
          "type": "string"
        },
        {
          "internalType": "string",
          "name": "addToUser",
          "type": "string"
        },
        {
          "internalType": "uint256",
          "name": "numOfPoints",
          "type": "uint256"
        }
      ],
      "name": "buyPoints",
      "outputs": [
        {
          "internalType": "uint256",
          "name": "",
          "type": "uint256"
        }
      ],
      "stateMutability": "nonpayable",
      "type": "function"
    },
    {
      "inputs": [
        {
          "internalType": "uint256",
          "name": "buyOrderId",
          "type": "uint256"
        },
        {
          "internalType": "string",
          "name": "takeFromIssuer",
          "type": "string"
        },
        {
          "internalType": "string",
          "name": "takeFromAccount",
          "type": "string"
        },
        {
          "internalType": "string",
          "name": "takeFromUser",
          "type": "string"
        }
      ],
      "name": "fulfillABuyOrder",
      "outputs": [
        {
          "internalType": "uint256",
          "name": "",
          "type": "uint256"
        },
        {
          "internalType": "uint256",
          "name": "",
          "type": "uint256"
        }
      ],
      "stateMutability": "nonpayable",
      "type": "function"
    },
    {
      "inputs": [
        {
          "internalType": "string",
          "name": "takeFromIssuer",
          "type": "string"
        },
        {
          "internalType": "string",
          "name": "takeFromAccount",
          "type": "string"
        },
        {
          "internalType": "string",
          "name": "takeFromUser",
          "type": "string"
        },
        {
          "internalType": "uint256",
          "name": "numOfPoints",
          "type": "uint256"
        }
      ],
      "name": "sellPoints",
      "outputs": [
        {
          "internalType": "uint256",
          "name": "",
          "type": "uint256"
        }
      ],
      "stateMutability": "nonpayable",
      "type": "function"
    },
    {
      "inputs": [
        {
          "internalType": "uint256",
          "name": "sellOrderId",
          "type": "uint256"
        },
        {
          "internalType": "string",
          "name": "addToIssuer",
          "type": "string"
        },
        {
          "internalType": "string",
          "name": "addToAccount",
          "type": "string"
        },
        {
          "internalType": "string",
          "name": "addToUser",
          "type": "string"
        }
      ],
      "name": "fulfillASellOrder",
      "outputs": [
        {
          "internalType": "uint256",
          "name": "",
          "type": "uint256"
        },
        {
          "internalType": "uint256",
          "name": "",
          "type": "uint256"
        }
      ],
      "stateMutability": "nonpayable",
      "type": "function"
    },
    {
      "inputs": [
        {
          "internalType": "string",
          "name": "addToIssuer",
          "type": "string"
        },
        {
          "internalType": "string",
          "name": "addToAccount",
          "type": "string"
        },
        {
          "internalType": "string",
          "name": "takeFromIssuer",
          "type": "string"
        },
        {
          "internalType": "string",
          "name": "takeFromAccount",
          "type": "string"
        },
        {
          "internalType": "string",
          "name": "addToTakeFromUser",
          "type": "string"
        },
        {
          "internalType": "uint256",
          "name": "numOfPoints",
          "type": "uint256"
        }
      ],
      "name": "transferPoints",
      "outputs": [
        {
          "internalType": "uint256",
          "name": "",
          "type": "uint256"
        },
        {
          "internalType": "uint256",
          "name": "",
          "type": "uint256"
        }
      ],
      "stateMutability": "nonpayable",
      "type": "function"
    },
    {
      "inputs": [
        {
          "internalType": "uint256",
          "name": "_orderId",
          "type": "uint256"
        }
      ],
      "name": "cancelBuyOrder",
      "outputs": [],
      "stateMutability": "nonpayable",
      "type": "function"
    },
    {
      "inputs": [
        {
          "internalType": "uint256",
          "name": "_orderId",
          "type": "uint256"
        }
      ],
      "name": "cancelSellOrder",
      "outputs": [],
      "stateMutability": "nonpayable",
      "type": "function"
    },
    {
      "inputs": [
        {
          "internalType": "uint256",
          "name": "_stakedLoyaltyLiability",
          "type": "uint256"
        },
        {
          "internalType": "uint256",
          "name": "_totalPtsPromised",
          "type": "uint256"
        }
      ],
      "name": "mint",
      "outputs": [
        {
          "internalType": "bool",
          "name": "minted",
          "type": "bool"
        }
      ],
      "stateMutability": "nonpayable",
      "type": "function"
    },
    {
      "inputs": [],
      "name": "getAccounts",
      "outputs": [
        {
          "internalType": "address[]",
          "name": "",
          "type": "address[]"
        }
      ],
      "stateMutability": "view",
      "type": "function",
      "constant": true
    },
    {
      "inputs": [],
      "name": "getPearlZZToken",
      "outputs": [
        {
          "internalType": "contract PearlZZToken",
          "name": "",
          "type": "address"
        }
      ],
      "stateMutability": "view",
      "type": "function",
      "constant": true
    },
    {
      "inputs": [],
      "name": "pearlzzTokenName",
      "outputs": [
        {
          "internalType": "string",
          "name": "",
          "type": "string"
        }
      ],
      "stateMutability": "view",
      "type": "function",
      "constant": true
    },
    {
      "inputs": [],
      "name": "pearlzzTokenSymbol",
      "outputs": [
        {
          "internalType": "string",
          "name": "",
          "type": "string"
        }
      ],
      "stateMutability": "view",
      "type": "function",
      "constant": true
    },
    {
      "inputs": [],
      "name": "pearlzzTokenDecimals",
      "outputs": [
        {
          "internalType": "uint256",
          "name": "",
          "type": "uint256"
        }
      ],
      "stateMutability": "view",
      "type": "function",
      "constant": true
    },
    {
      "inputs": [],
      "name": "pearlzzTokenTotalSupply",
      "outputs": [
        {
          "internalType": "uint256",
          "name": "",
          "type": "uint256"
        }
      ],
      "stateMutability": "view",
      "type": "function",
      "constant": true
    },
    {
      "inputs": [],
      "name": "pearlzzTokenTotalPtsPromised",
      "outputs": [
        {
          "internalType": "uint256",
          "name": "",
          "type": "uint256"
        }
      ],
      "stateMutability": "view",
      "type": "function",
      "constant": true
    }
  ],
  "bytecode": "0x60806040523480156200001157600080fd5b50604051620043e3380380620043e3833981810160405281019062000037919062000370565b62000069620000546200012f640100000000026401000000009004565b62000137640100000000026401000000009004565b806001908051906020019062000081929190620001fb565b5060405162000090906200028a565b604051809103906000f080158015620000ad573d6000803e3d6000fd5b50600260006101000a81548173ffffffffffffffffffffffffffffffffffffffff021916908373ffffffffffffffffffffffffffffffffffffffff1602179055507f6f36b77e2ef64a7324f5cd8317ca000872b22a05828b75f7fc55d2cb26683b4e600160405162000120919062000453565b60405180910390a150620005f5565b600033905090565b60008060009054906101000a900473ffffffffffffffffffffffffffffffffffffffff169050816000806101000a81548173ffffffffffffffffffffffffffffffffffffffff021916908373ffffffffffffffffffffffffffffffffffffffff1602179055508173ffffffffffffffffffffffffffffffffffffffff168173ffffffffffffffffffffffffffffffffffffffff167f8be0079c531659141344cd1fd0a4f28419497f9722a3daafe3b4186f6b6457e060405160405180910390a35050565b82805482825590600052602060002090810192821562000277579160200282015b82811115620002765782518260006101000a81548173ffffffffffffffffffffffffffffffffffffffff021916908373ffffffffffffffffffffffffffffffffffffffff160217905550916020019190600101906200021c565b5b50905062000286919062000298565b5090565b610ea3806200354083390190565b5b80821115620002b357600081600090555060010162000299565b5090565b6000620002ce620002c884620004ab565b62000477565b90508083825260208201905082856020860282011115620002ee57600080fd5b60005b858110156200032257816200030788826200032c565b845260208401935060208301925050600181019050620002f1565b5050509392505050565b6000815190506200033d81620005db565b92915050565b600082601f8301126200035557600080fd5b815162000367848260208601620002b7565b91505092915050565b6000602082840312156200038357600080fd5b600082015167ffffffffffffffff8111156200039e57600080fd5b620003ac8482850162000343565b91505092915050565b6000620003c38383620003cf565b60208301905092915050565b620003da8162000538565b82525050565b6000620003ed82620004ef565b620003f9818562000507565b93506200040683620004da565b8060005b8381101562000446576200041e82620005b9565b6200042a8882620003b5565b97506200043783620004fa565b9250506001810190506200040a565b5085935050505092915050565b600060208201905081810360008301526200046f8184620003e0565b905092915050565b6000604051905081810181811067ffffffffffffffff82111715620004a157620004a06200058a565b5b8060405250919050565b600067ffffffffffffffff821115620004c957620004c86200058a565b5b602082029050602081019050919050565b60008190508160005260206000209050919050565b600081549050919050565b6000600182019050919050565b600082825260208201905092915050565b600073ffffffffffffffffffffffffffffffffffffffff82169050919050565b600062000545826200054c565b9050919050565b600073ffffffffffffffffffffffffffffffffffffffff82169050919050565b6000620005836200057d83620005ce565b62000518565b9050919050565b7f4e487b7100000000000000000000000000000000000000000000000000000000600052604160045260246000fd5b6000620005c782546200056c565b9050919050565b6000600182049050919050565b620005e68162000538565b8114620005f257600080fd5b50565b612f3b80620006056000396000f3fe608060405234801561001057600080fd5b50600436106101f0576000357c0100000000000000000000000000000000000000000000000000000000900480638da5cb5b11610121578063c197a2b4116100bf578063f2af261c1161008e578063f2af261c1461059e578063f2bb74fc146105cf578063f2fde38b146105ff578063f3ab3a561461061b576101f1565b8063c197a2b414610502578063dac25efd14610532578063e738f46b14610550578063f2a40db81461056e576101f1565b8063a6135eaf116100fb578063a6135eaf14610479578063b319928a14610497578063be5d147f146104b5578063be8b11b3146104d1576101f1565b80638da5cb5b1461040d578063a1fe34f01461042b578063a2e1cd2b14610449576101f1565b80634d64b03f1161018e578063715018a611610168578063715018a6146103855780638077376a1461038f57806385b88d4a146103bf5780638a48ac03146103ef576101f1565b80634d64b03f1461031957806360bab6e514610337578063642bf99614610367576101f1565b80631b2ef1ca116101ca5780631b2ef1ca1461024e57806331d132a31461027e57806335cea288146102af5780634a8393f3146102e4576101f1565b80630c17e6be146101f65780631884629f146102145780631a46e42a14610232576101f1565b5b600080fd5b6101fe610639565b60405161020b9190612929565b60405180910390f35b61021c61065f565b6040516102299190612aee565b60405180910390f35b61024c6004803603810190610247919061204f565b610722565b005b6102686004803603810190610263919061214c565b6107e6565b604051610275919061290e565b60405180910390f35b610298600480360381019061029391906120a1565b610937565b6040516102a6929190612b7f565b60405180910390f35b6102c960048036038101906102c4919061204f565b610b0c565b6040516102db96959493929190612b09565b60405180910390f35b6102fe60048036038101906102f9919061204f565b610ce0565b60405161031096959493929190612b09565b60405180910390f35b610321610eb4565b60405161032e9190612944565b60405180910390f35b610351600480360381019061034c9190611fa4565b610f7c565b60405161035e9190612aee565b60405180910390f35b61036f6110ae565b60405161037c9190612929565b60405180910390f35b61038d611154565b005b6103a960048036038101906103a4919061204f565b6111dc565b6040516103b6919061290e565b60405180910390f35b6103d960048036038101906103d4919061204f565b6111fc565b6040516103e6919061290e565b60405180910390f35b6103f761121c565b60405161040491906128ec565b60405180910390f35b610415611326565b60405161042291906128d1565b60405180910390f35b61043361134f565b6040516104409190612aee565b60405180910390f35b610463600480360381019061045e919061204f565b611412565b604051610470919061290e565b60405180910390f35b610481611432565b60405161048e9190612944565b60405180910390f35b61049f6114fa565b6040516104ac9190612aee565b60405180910390f35b6104cf60048036038101906104ca919061204f565b611500565b005b6104eb60048036038101906104e69190611ea3565b6115c4565b6040516104f9929190612b7f565b60405180910390f35b61051c6004803603810190610517919061204f565b61163a565b604051610529919061290e565b60405180910390f35b61053a61165a565b6040516105479190612aee565b60405180910390f35b61055861171d565b6040516105659190612aee565b60405180910390f35b6105886004803603810190610583919061204f565b611723565b60405161059591906128d1565b60405180910390f35b6105b860048036038101906105b391906120a1565b611762565b6040516105c6929190612b7f565b60405180910390f35b6105e960048036038101906105e49190611fa4565b611937565b6040516105f69190612aee565b60405180910390f35b61061960048036038101906106149190611e10565b611a69565b005b610623611b61565b6040516106309190612aee565b60405180910390f35b600260009054906101000a900473ffffffffffffffffffffffffffffffffffffffff1681565b6000600260009054906101000a900473ffffffffffffffffffffffffffffffffffffffff1673ffffffffffffffffffffffffffffffffffffffff1663313ce5676040518163ffffffff167c010000000000000000000000000000000000000000000000000000000002815260040160206040518083038186803b1580156106e557600080fd5b505afa1580156106f9573d6000803e3d6000fd5b505050506040513d601f19601f8201168201806040525081019061071d9190612078565b905090565b60006006600083815260200190815260200160002090508181600001541461077f576040517f08c379a000000000000000000000000000000000000000000000000000000000815260040161077690612a46565b60405180910390fd5b6001600a600084815260200190815260200160002060006101000a81548160ff0219169083151502179055507fc646bbe4e8c2ab22a61e0a3d8a45405218a9f271b0316b1399a89d35b9c9b213816040516107da9190612acc565b60405180910390a15050565b60006107f0611b67565b73ffffffffffffffffffffffffffffffffffffffff1661080e611326565b73ffffffffffffffffffffffffffffffffffffffff1614610864576040517f08c379a000000000000000000000000000000000000000000000000000000000815260040161085b906129e6565b60405180910390fd5b600260009054906101000a900473ffffffffffffffffffffffffffffffffffffffff1673ffffffffffffffffffffffffffffffffffffffff16631b2ef1ca84846040518363ffffffff167c01000000000000000000000000000000000000000000000000000000000281526004016108dd929190612b7f565b602060405180830381600087803b1580156108f757600080fd5b505af115801561090b573d6000803e3d6000fd5b505050506040513d601f19601f8201168201806040525081019061092f9190611e39565b905092915050565b60008060008611801561094c57506005548611155b61098b576040517f08c379a0000000000000000000000000000000000000000000000000000000008152600401610982906129c6565b60405180910390fd5b600b600087815260200190815260200160002060009054906101000a900460ff16156109ec576040517f08c379a00000000000000000000000000000000000000000000000000000000081526004016109e390612a06565b60405180910390fd5b600a600087815260200190815260200160002060009054906101000a900460ff1615610a4d576040517f08c379a0000000000000000000000000000000000000000000000000000000008152600401610a4490612a26565b60405180910390fd5b60006006600088815260200190815260200160002090506000610a768787878560040154611937565b90507f3362d367149d6d71a34b5ffbd031de9746467b3a85e0eab5fa4a115e7f09959d888242604051610aab93929190612ba8565b60405180910390a16001600b60008a815260200190815260200160002060006101000a81548160ff021916908315150217905550610af56001600754611b6f90919063ffffffff16565b600781905550878193509350505094509492505050565b6004602052806000526040600020600091509050806000015490806001018054610b3590612dc9565b80601f0160208091040260200160405190810160405280929190818152602001828054610b6190612dc9565b8015610bae5780601f10610b8357610100808354040283529160200191610bae565b820191906000526020600020905b815481529060010190602001808311610b9157829003601f168201915b505050505090806002018054610bc390612dc9565b80601f0160208091040260200160405190810160405280929190818152602001828054610bef90612dc9565b8015610c3c5780601f10610c1157610100808354040283529160200191610c3c565b820191906000526020600020905b815481529060010190602001808311610c1f57829003601f168201915b505050505090806003018054610c5190612dc9565b80601f0160208091040260200160405190810160405280929190818152602001828054610c7d90612dc9565b8015610cca5780601f10610c9f57610100808354040283529160200191610cca565b820191906000526020600020905b815481529060010190602001808311610cad57829003601f168201915b5050505050908060040154908060050154905086565b6006602052806000526040600020600091509050806000015490806001018054610d0990612dc9565b80601f0160208091040260200160405190810160405280929190818152602001828054610d3590612dc9565b8015610d825780601f10610d5757610100808354040283529160200191610d82565b820191906000526020600020905b815481529060010190602001808311610d6557829003601f168201915b505050505090806002018054610d9790612dc9565b80601f0160208091040260200160405190810160405280929190818152602001828054610dc390612dc9565b8015610e105780601f10610de557610100808354040283529160200191610e10565b820191906000526020600020905b815481529060010190602001808311610df357829003601f168201915b505050505090806003018054610e2590612dc9565b80601f0160208091040260200160405190810160405280929190818152602001828054610e5190612dc9565b8015610e9e5780601f10610e7357610100808354040283529160200191610e9e565b820191906000526020600020905b815481529060010190602001808311610e8157829003601f168201915b5050505050908060040154908060050154905086565b6060600260009054906101000a900473ffffffffffffffffffffffffffffffffffffffff1673ffffffffffffffffffffffffffffffffffffffff166395d89b416040518163ffffffff167c010000000000000000000000000000000000000000000000000000000002815260040160006040518083038186803b158015610f3a57600080fd5b505afa158015610f4e573d6000803e3d6000fd5b505050506040513d6000823e3d601f19601f82011682018060405250810190610f779190611e62565b905090565b6000610f946001600554611b6f90919063ffffffff16565b6005819055506040518060c00160405280600554815260200186815260200185815260200184815260200183815260200142815250600660006005548152602001908152602001600020600082015181600001556020820151816001019080519060200190611004929190611c49565b506040820151816002019080519060200190611021929190611c49565b50606082015181600301908051906020019061103e929190611c49565b506080820151816004015560a082015181600501559050507f7bb6cebec3856ae17aa8856031d3e9aaf1adcb165ba25c2c3860b09ca566dca06006600060055481526020019081526020016000206040516110999190612aaa565b60405180910390a16005549050949350505050565b60006110b8611b67565b73ffffffffffffffffffffffffffffffffffffffff166110d6611326565b73ffffffffffffffffffffffffffffffffffffffff161461112c576040517f08c379a0000000000000000000000000000000000000000000000000000000008152600401611123906129e6565b60405180910390fd5b600260009054906101000a900473ffffffffffffffffffffffffffffffffffffffff16905090565b61115c611b67565b73ffffffffffffffffffffffffffffffffffffffff1661117a611326565b73ffffffffffffffffffffffffffffffffffffffff16146111d0576040517f08c379a00000000000000000000000000000000000000000000000000000000081526004016111c7906129e6565b60405180910390fd5b6111da6000611b85565b565b60096020528060005260406000206000915054906101000a900460ff1681565b60086020528060005260406000206000915054906101000a900460ff1681565b6060611226611b67565b73ffffffffffffffffffffffffffffffffffffffff16611244611326565b73ffffffffffffffffffffffffffffffffffffffff161461129a576040517f08c379a0000000000000000000000000000000000000000000000000000000008152600401611291906129e6565b60405180910390fd5b600180548060200260200160405190810160405280929190818152602001828054801561131c57602002820191906000526020600020905b8160009054906101000a900473ffffffffffffffffffffffffffffffffffffffff1673ffffffffffffffffffffffffffffffffffffffff16815260200190600101908083116112d2575b5050505050905090565b60008060009054906101000a900473ffffffffffffffffffffffffffffffffffffffff16905090565b6000600260009054906101000a900473ffffffffffffffffffffffffffffffffffffffff1673ffffffffffffffffffffffffffffffffffffffff166318160ddd6040518163ffffffff167c010000000000000000000000000000000000000000000000000000000002815260040160206040518083038186803b1580156113d557600080fd5b505afa1580156113e9573d6000803e3d6000fd5b505050506040513d601f19601f8201168201806040525081019061140d9190612078565b905090565b600b6020528060005260406000206000915054906101000a900460ff1681565b6060600260009054906101000a900473ffffffffffffffffffffffffffffffffffffffff1673ffffffffffffffffffffffffffffffffffffffff166306fdde036040518163ffffffff167c010000000000000000000000000000000000000000000000000000000002815260040160006040518083038186803b1580156114b857600080fd5b505afa1580156114cc573d6000803e3d6000fd5b505050506040513d6000823e3d601f19601f820116820180604052508101906114f59190611e62565b905090565b60035481565b60006004600083815260200190815260200160002090508181600001541461155d576040517f08c379a000000000000000000000000000000000000000000000000000000000815260040161155490612a46565b60405180910390fd5b60016008600084815260200190815260200160002060006101000a81548160ff0219169083151502179055507feac7a587babe9b833caa40c38eeb7c87af19b8fc931734fb96640a2be2ee0740816040516115b89190612a88565b60405180910390a15050565b6000806000806115d68a8a8888611937565b91506115e482898989611762565b80925081935050507f0dd266099c5bd53c2500cfa4a9b1653f80fb452bfa84a5a074b75184305417ed82824260405161161f93929190612ba8565b60405180910390a18181935093505050965096945050505050565b600a6020528060005260406000206000915054906101000a900460ff1681565b6000600260009054906101000a900473ffffffffffffffffffffffffffffffffffffffff1673ffffffffffffffffffffffffffffffffffffffff16635f5ebf876040518163ffffffff167c010000000000000000000000000000000000000000000000000000000002815260040160206040518083038186803b1580156116e057600080fd5b505afa1580156116f4573d6000803e3d6000fd5b505050506040513d601f19601f820116820180604052508101906117189190612078565b905090565b60055481565b6001818154811061173357600080fd5b906000526020600020016000915054906101000a900473ffffffffffffffffffffffffffffffffffffffff1681565b60008060008611801561177757506003548611155b6117b6576040517f08c379a00000000000000000000000000000000000000000000000000000000081526004016117ad906129c6565b60405180910390fd5b6009600087815260200190815260200160002060009054906101000a900460ff1615611817576040517f08c379a000000000000000000000000000000000000000000000000000000000815260040161180e90612986565b60405180910390fd5b6008600087815260200190815260200160002060009054906101000a900460ff1615611878576040517f08c379a000000000000000000000000000000000000000000000000000000000815260040161186f90612966565b60405180910390fd5b600060046000888152602001908152602001600020905060006118a18787878560040154610f7c565b90507f7906d666fc472db47577d0b2a6027b0a56c9a4949140045bdd6b41821e28fd178882426040516118d693929190612ba8565b60405180910390a16001600960008a815260200190815260200160002060006101000a81548160ff0219169083151502179055506119206001600754611b6f90919063ffffffff16565b600781905550878193509350505094509492505050565b600061194f6001600354611b6f90919063ffffffff16565b6003819055506040518060c001604052806003548152602001868152602001858152602001848152602001838152602001428152506004600060035481526020019081526020016000206000820151816000015560208201518160010190805190602001906119bf929190611c49565b5060408201518160020190805190602001906119dc929190611c49565b5060608201518160030190805190602001906119f9929190611c49565b506080820151816004015560a082015181600501559050507feae4db855d77269e36cfbdfca36fd06f9e17fec373cbbd4eae1d9eaf646b3378600460006003548152602001908152602001600020604051611a549190612a66565b60405180910390a16003549050949350505050565b611a71611b67565b73ffffffffffffffffffffffffffffffffffffffff16611a8f611326565b73ffffffffffffffffffffffffffffffffffffffff1614611ae5576040517f08c379a0000000000000000000000000000000000000000000000000000000008152600401611adc906129e6565b60405180910390fd5b600073ffffffffffffffffffffffffffffffffffffffff168173ffffffffffffffffffffffffffffffffffffffff161415611b55576040517f08c379a0000000000000000000000000000000000000000000000000000000008152600401611b4c906129a6565b60405180910390fd5b611b5e81611b85565b50565b60075481565b600033905090565b60008183611b7d9190612cbb565b905092915050565b60008060009054906101000a900473ffffffffffffffffffffffffffffffffffffffff169050816000806101000a81548173ffffffffffffffffffffffffffffffffffffffff021916908373ffffffffffffffffffffffffffffffffffffffff1602179055508173ffffffffffffffffffffffffffffffffffffffff168173ffffffffffffffffffffffffffffffffffffffff167f8be0079c531659141344cd1fd0a4f28419497f9722a3daafe3b4186f6b6457e060405160405180910390a35050565b828054611c5590612dc9565b90600052602060002090601f016020900481019282611c775760008555611cbe565b82601f10611c9057805160ff1916838001178555611cbe565b82800160010185558215611cbe579182015b82811115611cbd578251825591602001919060010190611ca2565b5b509050611ccb9190611ccf565b5090565b5b80821115611ce8576000816000905550600101611cd0565b5090565b6000611cff611cfa84612c10565b612bdf565b905082815260208101848484011115611d1757600080fd5b611d22848285612d87565b509392505050565b6000611d3d611d3884612c10565b612bdf565b905082815260208101848484011115611d5557600080fd5b611d60848285612d96565b509392505050565b600081359050611d7781612ec0565b92915050565b600081519050611d8c81612ed7565b92915050565b600082601f830112611da357600080fd5b8135611db3848260208601611cec565b91505092915050565b600082601f830112611dcd57600080fd5b8151611ddd848260208601611d2a565b91505092915050565b600081359050611df581612eee565b92915050565b600081519050611e0a81612eee565b92915050565b600060208284031215611e2257600080fd5b6000611e3084828501611d68565b91505092915050565b600060208284031215611e4b57600080fd5b6000611e5984828501611d7d565b91505092915050565b600060208284031215611e7457600080fd5b600082015167ffffffffffffffff811115611e8e57600080fd5b611e9a84828501611dbc565b91505092915050565b60008060008060008060c08789031215611ebc57600080fd5b600087013567ffffffffffffffff811115611ed657600080fd5b611ee289828a01611d92565b965050602087013567ffffffffffffffff811115611eff57600080fd5b611f0b89828a01611d92565b955050604087013567ffffffffffffffff811115611f2857600080fd5b611f3489828a01611d92565b945050606087013567ffffffffffffffff811115611f5157600080fd5b611f5d89828a01611d92565b935050608087013567ffffffffffffffff811115611f7a57600080fd5b611f8689828a01611d92565b92505060a0611f9789828a01611de6565b9150509295509295509295565b60008060008060808587031215611fba57600080fd5b600085013567ffffffffffffffff811115611fd457600080fd5b611fe087828801611d92565b945050602085013567ffffffffffffffff811115611ffd57600080fd5b61200987828801611d92565b935050604085013567ffffffffffffffff81111561202657600080fd5b61203287828801611d92565b925050606061204387828801611de6565b91505092959194509250565b60006020828403121561206157600080fd5b600061206f84828501611de6565b91505092915050565b60006020828403121561208a57600080fd5b600061209884828501611dfb565b91505092915050565b600080600080608085870312156120b757600080fd5b60006120c587828801611de6565b945050602085013567ffffffffffffffff8111156120e257600080fd5b6120ee87828801611d92565b935050604085013567ffffffffffffffff81111561210b57600080fd5b61211787828801611d92565b925050606085013567ffffffffffffffff81111561213457600080fd5b61214087828801611d92565b91505092959194509250565b6000806040838503121561215f57600080fd5b600061216d85828601611de6565b925050602061217e85828601611de6565b9150509250929050565b600061219483836121a0565b60208301905092915050565b6121a981612d1b565b82525050565b6121b881612d1b565b82525050565b60006121c982612c65565b6121d38185612c88565b93506121de83612c40565b8060005b8381101561220f5781516121f68882612188565b975061220183612c7b565b9250506001810190506121e2565b5085935050505092915050565b61222581612d2d565b82525050565b61223481612d63565b82525050565b600061224582612c70565b61224f8185612caa565b935061225f818560208601612d96565b61226881612ea2565b840191505092915050565b6000815461228081612dc9565b61228a8186612c99565b945060018216600081146122a557600181146122b7576122ea565b60ff19831686526020860193506122ea565b6122c085612c50565b60005b838110156122e2578154818901526001820191506020810190506122c3565b808801955050505b50505092915050565b6000612300602383612caa565b91507f4572726f723a20427579204f7264657220616c72656164792063616e63656c6c60008301527f65642e00000000000000000000000000000000000000000000000000000000006020830152604082019050919050565b6000612366602383612caa565b91507f4572726f723a20427579204f7264657220616c72656164792066756c66696c6c60008301527f65642e00000000000000000000000000000000000000000000000000000000006020830152604082019050919050565b60006123cc602683612caa565b91507f4f776e61626c653a206e6577206f776e657220697320746865207a65726f206160008301527f64647265737300000000000000000000000000000000000000000000000000006020830152604082019050919050565b6000612432602e83612caa565b91507f4572726f723a206f726465724964206f7574206f662076616c69642072616e6760008301527f652e20496e76616c69642049642e0000000000000000000000000000000000006020830152604082019050919050565b6000612498602083612caa565b91507f4f776e61626c653a2063616c6c6572206973206e6f7420746865206f776e65726000830152602082019050919050565b60006124d8602483612caa565b91507f4572726f723a2053656c6c204f7264657220616c72656164792066756c66696c60008301527f6c65642e000000000000000000000000000000000000000000000000000000006020830152604082019050919050565b600061253e602483612caa565b91507f4572726f723a2053656c6c204f7264657220616c72656164792063616e63656c60008301527f6c65642e000000000000000000000000000000000000000000000000000000006020830152604082019050919050565b60006125a4601883612caa565b91507f546865206f7264657220646f65736e27742065786973742e00000000000000006000830152602082019050919050565b600060c0830160008084015490506125ee81612dfb565b6125fb60008701826128b3565b506001840185830360208701526126128382612273565b92505060028401858303604087015261262b8382612273565b9250506003840185830360608701526126448382612273565b9250506004840154905061265781612dfb565b61266460808701826128b3565b506005840154905061267581612dfb565b61268260a08701826128b3565b50819250505092915050565b600060c0830160008084015490506126a581612dfb565b6126b260008701826128b3565b506001840185830360208701526126c98382612273565b9250506002840185830360408701526126e28382612273565b9250506003840185830360608701526126fb8382612273565b9250506004840154905061270e81612dfb565b61271b60808701826128b3565b506005840154905061272c81612dfb565b61273960a08701826128b3565b50819250505092915050565b600060c08301600080840154905061275c81612dfb565b61276960008701826128b3565b506001840185830360208701526127808382612273565b9250506002840185830360408701526127998382612273565b9250506003840185830360608701526127b28382612273565b925050600484015490506127c581612dfb565b6127d260808701826128b3565b50600584015490506127e381612dfb565b6127f060a08701826128b3565b50819250505092915050565b600060c08301600080840154905061281381612dfb565b61282060008701826128b3565b506001840185830360208701526128378382612273565b9250506002840185830360408701526128508382612273565b9250506003840185830360608701526128698382612273565b9250506004840154905061287c81612dfb565b61288960808701826128b3565b506005840154905061289a81612dfb565b6128a760a08701826128b3565b50819250505092915050565b6128bc81612d59565b82525050565b6128cb81612d59565b82525050565b60006020820190506128e660008301846121af565b92915050565b6000602082019050818103600083015261290681846121be565b905092915050565b6000602082019050612923600083018461221c565b92915050565b600060208201905061293e600083018461222b565b92915050565b6000602082019050818103600083015261295e818461223a565b905092915050565b6000602082019050818103600083015261297f816122f3565b9050919050565b6000602082019050818103600083015261299f81612359565b9050919050565b600060208201905081810360008301526129bf816123bf565b9050919050565b600060208201905081810360008301526129df81612425565b9050919050565b600060208201905081810360008301526129ff8161248b565b9050919050565b60006020820190508181036000830152612a1f816124cb565b9050919050565b60006020820190508181036000830152612a3f81612531565b9050919050565b60006020820190508181036000830152612a5f81612597565b9050919050565b60006020820190508181036000830152612a80818461268e565b905092915050565b60006020820190508181036000830152612aa281846125d7565b905092915050565b60006020820190508181036000830152612ac481846127fc565b905092915050565b60006020820190508181036000830152612ae68184612745565b905092915050565b6000602082019050612b0360008301846128c2565b92915050565b600060c082019050612b1e60008301896128c2565b8181036020830152612b30818861223a565b90508181036040830152612b44818761223a565b90508181036060830152612b58818661223a565b9050612b6760808301856128c2565b612b7460a08301846128c2565b979650505050505050565b6000604082019050612b9460008301856128c2565b612ba160208301846128c2565b9392505050565b6000606082019050612bbd60008301866128c2565b612bca60208301856128c2565b612bd760408301846128c2565b949350505050565b6000604051905081810181811067ffffffffffffffff82111715612c0657612c05612e73565b5b8060405250919050565b600067ffffffffffffffff821115612c2b57612c2a612e73565b5b601f19601f8301169050602081019050919050565b6000819050602082019050919050565b60008190508160005260206000209050919050565b600081519050919050565b600081519050919050565b6000602082019050919050565b600082825260208201905092915050565b600082825260208201905092915050565b600082825260208201905092915050565b6000612cc682612d59565b9150612cd183612d59565b9250827fffffffffffffffffffffffffffffffffffffffffffffffffffffffffffffffff03821115612d0657612d05612e15565b5b828201905092915050565b6000819050919050565b6000612d2682612d39565b9050919050565b60008115159050919050565b600073ffffffffffffffffffffffffffffffffffffffff82169050919050565b6000819050919050565b6000612d6e82612d75565b9050919050565b6000612d8082612d39565b9050919050565b82818337600083830152505050565b60005b83811015612db4578082015181840152602081019050612d99565b83811115612dc3576000848401525b50505050565b60006002820490506001821680612de157607f821691505b60208210811415612df557612df4612e44565b5b50919050565b6000612e0e612e0983612eb3565b612d11565b9050919050565b7f4e487b7100000000000000000000000000000000000000000000000000000000600052601160045260246000fd5b7f4e487b7100000000000000000000000000000000000000000000000000000000600052602260045260246000fd5b7f4e487b7100000000000000000000000000000000000000000000000000000000600052604160045260246000fd5b6000601f19601f8301169050919050565b6000600182049050919050565b612ec981612d1b565b8114612ed457600080fd5b50565b612ee081612d2d565b8114612eeb57600080fd5b50565b612ef781612d59565b8114612f0257600080fd5b5056fea264697066735822122082e652e5a76535e1baac4aa3a5a5b2fefca62bb12cd9c3344806f02facfcd7a964736f6c63430008000033608060405260405180602001604052806000815250600190805190602001906200002b92919062000267565b5060405180602001604052806000815250600290805190602001906200005392919062000267565b506040518060400160405280600381526020017f312e30000000000000000000000000000000000000000000000000000000000081525060039080519060200190620000a192919062000267565b50601260045560006005556000600655348015620000be57600080fd5b50620000f1620000dc6200019b640100000000026401000000009004565b620001a3640100000000026401000000009004565b6040518060400160405280600781526020017f506561726c5a5a00000000000000000000000000000000000000000000000000815250600190805190602001906200013e92919062000267565b506040518060400160405280600481526020017f50524c5a00000000000000000000000000000000000000000000000000000000815250600290805190602001906200018c92919062000267565b5060006005819055506200037c565b600033905090565b60008060009054906101000a900473ffffffffffffffffffffffffffffffffffffffff169050816000806101000a81548173ffffffffffffffffffffffffffffffffffffffff021916908373ffffffffffffffffffffffffffffffffffffffff1602179055508173ffffffffffffffffffffffffffffffffffffffff168173ffffffffffffffffffffffffffffffffffffffff167f8be0079c531659141344cd1fd0a4f28419497f9722a3daafe3b4186f6b6457e060405160405180910390a35050565b828054620002759062000317565b90600052602060002090601f016020900481019282620002995760008555620002e5565b82601f10620002b457805160ff1916838001178555620002e5565b82800160010185558215620002e5579182015b82811115620002e4578251825591602001919060010190620002c7565b5b509050620002f49190620002f8565b5090565b5b8082111562000313576000816000905550600101620002f9565b5090565b600060028204905060018216806200033057607f821691505b602082108114156200034757620003466200034d565b5b50919050565b7f4e487b7100000000000000000000000000000000000000000000000000000000600052602260045260246000fd5b610b17806200038c6000396000f3fe608060405234801561001057600080fd5b50600436106100bb576000357c0100000000000000000000000000000000000000000000000000000000900480635f5ebf87116100835780635f5ebf8714610168578063715018a6146101865780638da5cb5b1461019057806395d89b41146101ae578063f2fde38b146101cc576100bb565b806306fdde03146100c057806318160ddd146100de5780631b2ef1ca146100fc578063313ce5671461012c57806354fd4d501461014a575b600080fd5b6100c86101e8565b6040516100d591906108a8565b60405180910390f35b6100e6610276565b6040516100f3919061090a565b60405180910390f35b6101166004803603810190610111919061072a565b61027c565b604051610123919061088d565b60405180910390f35b61013461033a565b604051610141919061090a565b60405180910390f35b610152610340565b60405161015f91906108a8565b60405180910390f35b6101706103ce565b60405161017d919061090a565b60405180910390f35b61018e6103d4565b005b61019861045c565b6040516101a59190610872565b60405180910390f35b6101b6610485565b6040516101c391906108a8565b60405180910390f35b6101e660048036038101906101e19190610701565b610513565b005b600180546101f590610a12565b80601f016020809104026020016040519081016040528092919081815260200182805461022190610a12565b801561026e5780601f106102435761010080835404028352916020019161026e565b820191906000526020600020905b81548152906001019060200180831161025157829003601f168201915b505050505081565b60055481565b600061028661060b565b73ffffffffffffffffffffffffffffffffffffffff166102a461045c565b73ffffffffffffffffffffffffffffffffffffffff16146102fa576040517f08c379a00000000000000000000000000000000000000000000000000000000081526004016102f1906108ea565b60405180910390fd5b6000905082600560008282546103109190610941565b9250508190555081600660008282546103299190610941565b925050819055506001905092915050565b60045481565b6003805461034d90610a12565b80601f016020809104026020016040519081016040528092919081815260200182805461037990610a12565b80156103c65780601f1061039b576101008083540402835291602001916103c6565b820191906000526020600020905b8154815290600101906020018083116103a957829003601f168201915b505050505081565b60065481565b6103dc61060b565b73ffffffffffffffffffffffffffffffffffffffff166103fa61045c565b73ffffffffffffffffffffffffffffffffffffffff1614610450576040517f08c379a0000000000000000000000000000000000000000000000000000000008152600401610447906108ea565b60405180910390fd5b61045a6000610613565b565b60008060009054906101000a900473ffffffffffffffffffffffffffffffffffffffff16905090565b6002805461049290610a12565b80601f01602080910402602001604051908101604052809291908181526020018280546104be90610a12565b801561050b5780601f106104e05761010080835404028352916020019161050b565b820191906000526020600020905b8154815290600101906020018083116104ee57829003601f168201915b505050505081565b61051b61060b565b73ffffffffffffffffffffffffffffffffffffffff1661053961045c565b73ffffffffffffffffffffffffffffffffffffffff161461058f576040517f08c379a0000000000000000000000000000000000000000000000000000000008152600401610586906108ea565b60405180910390fd5b600073ffffffffffffffffffffffffffffffffffffffff168173ffffffffffffffffffffffffffffffffffffffff1614156105ff576040517f08c379a00000000000000000000000000000000000000000000000000000000081526004016105f6906108ca565b60405180910390fd5b61060881610613565b50565b600033905090565b60008060009054906101000a900473ffffffffffffffffffffffffffffffffffffffff169050816000806101000a81548173ffffffffffffffffffffffffffffffffffffffff021916908373ffffffffffffffffffffffffffffffffffffffff1602179055508173ffffffffffffffffffffffffffffffffffffffff168173ffffffffffffffffffffffffffffffffffffffff167f8be0079c531659141344cd1fd0a4f28419497f9722a3daafe3b4186f6b6457e060405160405180910390a35050565b6000813590506106e681610ab3565b92915050565b6000813590506106fb81610aca565b92915050565b60006020828403121561071357600080fd5b6000610721848285016106d7565b91505092915050565b6000806040838503121561073d57600080fd5b600061074b858286016106ec565b925050602061075c858286016106ec565b9150509250929050565b61076f81610997565b82525050565b61077e816109a9565b82525050565b600061078f82610925565b6107998185610930565b93506107a98185602086016109df565b6107b281610aa2565b840191505092915050565b60006107ca602683610930565b91507f4f776e61626c653a206e6577206f776e657220697320746865207a65726f206160008301527f64647265737300000000000000000000000000000000000000000000000000006020830152604082019050919050565b6000610830602083610930565b91507f4f776e61626c653a2063616c6c6572206973206e6f7420746865206f776e65726000830152602082019050919050565b61086c816109d5565b82525050565b60006020820190506108876000830184610766565b92915050565b60006020820190506108a26000830184610775565b92915050565b600060208201905081810360008301526108c28184610784565b905092915050565b600060208201905081810360008301526108e3816107bd565b9050919050565b6000602082019050818103600083015261090381610823565b9050919050565b600060208201905061091f6000830184610863565b92915050565b600081519050919050565b600082825260208201905092915050565b600061094c826109d5565b9150610957836109d5565b9250827fffffffffffffffffffffffffffffffffffffffffffffffffffffffffffffffff0382111561098c5761098b610a44565b5b828201905092915050565b60006109a2826109b5565b9050919050565b60008115159050919050565b600073ffffffffffffffffffffffffffffffffffffffff82169050919050565b6000819050919050565b60005b838110156109fd5780820151818401526020810190506109e2565b83811115610a0c576000848401525b50505050565b60006002820490506001821680610a2a57607f821691505b60208210811415610a3e57610a3d610a73565b5b50919050565b7f4e487b7100000000000000000000000000000000000000000000000000000000600052601160045260246000fd5b7f4e487b7100000000000000000000000000000000000000000000000000000000600052602260045260246000fd5b6000601f19601f8301169050919050565b610abc81610997565b8114610ac757600080fd5b50565b610ad3816109d5565b8114610ade57600080fd5b5056fea26469706673582212209136d993cf4b85333db48c450bc6c5cb7360bb70c31d78f6150681f14846dbeb64736f6c63430008000033",
  "immutableReferences": {},
  "source": "// SPDX-License-Identifier: MIT\r\n// pragma solidity >=0.4.22 <0.9.0;\r\n// pragma solidity >=0.7.0 <0.9.0;\r\npragma solidity 0.8.0;\r\n\r\nimport \"openzeppelin-solidity/contracts/utils/math/SafeMath.sol\";\r\nimport \"openzeppelin-solidity/contracts/access/Ownable.sol\";\r\n\r\nimport \"./PearlZZToken.sol\";\r\nimport \"./GenericContract.sol\"; \r\n\r\n\r\n\r\n///\t@title Master contract that manages the functionality of Loyalty Alliances, Loyalty Wallet, Points Exchange\r\n/// @author Kunal R. Shah\r\n/// @notice This is the main contract for PearlZZ \r\n/// @notice It manages \"Loyalty Alliances\" - an alliance of brands / businesses \r\n/// @notice It allows for alliances at a local town, city, county, state, country, and global levels\r\n/// @notice\tIt manages onboarding of Loyalty Issuer's Loyalty Liability stake to PearlZZ\r\n/// @notice It manages individual customers loyalty wallets\r\n/// @notice It enables a peer-to-peer trading of loyalty points\r\n/// @dev The PearlZZToken is a token, but it doesn't yet conform to the ERC20 spec. deliberately\r\n/// @dev The PearlZZToken is meant to be swappable with other ERC20 tokens.\r\n/// @dev It is mainly meant to provide value in terms of loyalty points transferrability / exchange\r\ncontract PearlZZExchange is GenericContract, Ownable {\r\n  using SafeMath for uint;\r\n\r\n\t//\r\n  // Variables\r\n\t//\r\n\r\n\t//\taddress constant ETHER_ADDR = address(0); \r\n\r\n\t/// @notice account addresses provided\r\n\taddress[] public accounts;\r\n\r\n\t/// @notice pearlZZToken is the instance of the PearlZZToken contract\r\n\tPearlZZToken public pearlzzToken;\r\n\r\n\r\n\t/// @notice numOfBuyOrders represents the total number of buy orders on the exchange\r\n\t/// @dev this buy orders counter is also incremented by 1 while creating a new buy order\r\n\t/// @dev The buy orders counters and the sell orders counters are manintained separately\r\n\tuint256 public numOfBuyOrders;\r\n\r\n\t/// @notice buyOrders is a mapping of buyOrderIds to their respective Order details\r\n\tmapping(uint256 => BuyOrderStruct) public buyOrders;\r\n\r\n\t/// @notice numOfSellOrders represents the total number of sell orders on the exchange\r\n\t/// @dev this sell orders counter is also incremented by 1 while creating a new sell order\r\n\t/// @dev The sell orders counters and the buy orders counters are manintained separately\r\n\tuint256 public numOfSellOrders;\r\n\r\n\t/// @notice sellOrders is a mapping of sellOrderIds to their respective Order details\r\n\tmapping(uint256 => SellOrderStruct) public sellOrders;\r\n\r\n\t/// @notice numOfFulfilledOrders represents the number of orders fulfilled across both buy and sell orders\r\n\t/// @dev please note this counter keeps track of all the fulfilled orders - buy orders and sell orders\r\n\tuint256 public numOfFulfilledOrders;\r\n\r\n\t/// @notice buyOrdersCancelled is the mapping of orderIds and the corresponding buy orders that were cancelled\r\n\tmapping(uint256 => bool) public buyOrdersCancelled;\r\n\r\n\t/// @notice buyOrdersFulfilled is the mapping of orderIds and the corresponding buy orders that were fulfilled\r\n\tmapping(uint256 => bool) public buyOrdersFulfilled;\r\n\r\n\t/// @notice sellOrdersCancelled is the mapping of orderIds and the corresponding sell orders that were cancelled\r\n\tmapping(uint256 => bool) public sellOrdersCancelled;\r\n\r\n\t/// @notice sellOrdersFulfilled is the mapping of orderIds and the corresponding sell orders that were fulfilled\r\n\tmapping(uint256 => bool) public sellOrdersFulfilled;\r\n\r\n\t// \r\n\t// Events\r\n\t//\r\n\r\n\t/// @notice SetAccountsEvent event was used primarily during debugging / learning\r\n\t/// @dev this event isn't truly necessary anymore. It doesn't hurt to have it anyway.\r\n\tevent\tSetAccountsEvent(address[] _accounts);\r\n\r\n\t/// @notice BuyOrderEvent is an event that should be emitted for every Buy Order placed\r\n\t/// @param buyOrder is for representing the buy order details in the BuyOrderStruct type\r\n\tevent BuyOrderEvent(BuyOrderStruct buyOrder);\r\n\r\n\t/// @notice SellOrderEvent is an event that should be emitted for every Sell Order placed\r\n\t/// @param sellOrder is for representing the sell order details in the SellOrderStruct type\r\n\tevent SellOrderEvent(SellOrderStruct sellOrder);\r\n\r\n\t//\r\n\t// What is Fulfillment Orders on the PearlZZ Exchange - \r\n\t// An open buy order is fulfilled by a sell order that another user places with an intent of fulfilling the buy order\r\n\t// An open sell order is fulfilled by a buy order that another user places with an intent of fulfilling the sell order\r\n\t// These orders represent the actual peer-to-peer exchange of points \r\n\t//\r\n\t// when an open order is selected by an user to fulfill it \r\n\t// (buy order is fulfilled by a corresponding sell order)\r\n\t// (sell order is fulfilled by a corresponding buy order)\r\n\t//\r\n\t// The TransferOrder is similar, with both buy and sell side are accounts for the same user (consumer)\r\n\t//\r\n\r\n\t/// @notice FulfilledBuyOrderEvent is emitted when a buy order is fulfilled by a corresponding sell order\r\n\t/// @param buyOrderId is the orderId for the buy order that is being fulfilled\r\n\t/// @param sellOrderId is the orderId for the sell order that is fulfilling the buy order\r\n\t/// @param fulfilledTimestamp is the timestamp representing the exact time of fulfillment\r\n\tevent FulfilledBuyOrderEvent(uint256 buyOrderId, uint256 sellOrderId, uint256 fulfilledTimestamp);\r\n\r\n\t/// @notice FulfilledSellOrderEvent is emitted when a sell order is fulfilled by a corresponding buy order\r\n\t/// @param sellOrderId is the orderId for the sell order that is being fulfilled\r\n\t/// @param buyOrderId is the orderId for the buy order that is fulfilling the sell order\r\n\tevent FulfilledSellOrderEvent(uint256 sellOrderId, uint256 buyOrderId, uint256 fulfilledTimestamp);\r\n\r\n\t/// @notice CancelledBuyOrderEvent is an event that should be emitted for every Cancellation of a Buy Order\r\n\t/// @param buyOrder is for representing the buy order details in the BuyOrderStruct type\r\n\tevent CancelledBuyOrderEvent(BuyOrderStruct buyOrder);\r\n\r\n\t/// @notice CancelledSellOrderEvent is an event that should be emitted for every Cancellation of a Sell Order\r\n\t/// @param sellOrder is for representing the sell order details in the SellOrderStruct type\r\n\tevent CancelledSellOrderEvent(SellOrderStruct sellOrder);\r\n\r\n\t/// @notice TransferOrderEvent represents a order for transferring points from one loyalty account to another for same user\r\n\t/// @param buyOrderId represents the buy-side order (points are added)\r\n\t/// @param sellOrderId represents the sell-side order (points are taken and transferred to buy-side)\r\n\t/// @param transferTimestamp represents the timestamp of the placement of this transfer order\r\n\tevent TransferOrderEvent(uint256 buyOrderId, uint256 sellOrderId, uint256 transferTimestamp);\r\n\r\n\t// structs\r\n\tstruct BuyOrderStruct {\r\n\t\t\t\t\t\tuint256 orderId;\r\n\t\t\t\t\t\tstring addToIssuer;\r\n\t\t\t\t\t\tstring addToAccount; \r\n\t\t\t\t\t\tstring addToUser;\r\n\t\t\t\t\t\tuint256 numOfPoints;\r\n\t\t\t\t\t\tuint256 buyOrderTimestamp;\r\n\t}\r\n\r\n\tstruct SellOrderStruct{\r\n\t\t\t\t\t\tuint256 orderId;\r\n\t\t\t\t\t\tstring takeFromIssuer;\r\n\t\t\t\t\t\tstring takeFromAccount;\r\n\t\t\t\t\t\tstring takeFromUser;\r\n\t\t\t\t\t\tuint256 numOfPoints; \r\n\t\t\t\t\t\tuint256 sellOrderTimestamp;\r\n\t}\r\n\r\n\r\n\t/// @notice PearlZZExchange Constructor\r\n\t/// @dev initialize PearlZZToken\r\n\tconstructor(address[] memory _accounts) {\r\n\t\taccounts = _accounts;\t\r\n\t\tpearlzzToken = new PearlZZToken();\r\n\t\temit SetAccountsEvent(accounts);\r\n  } // constructor\r\n\r\n\tfallback() external {\r\n\t\trevert();\r\n\t}\r\n\r\n\t/// @notice buyPoints\r\n\t/// @notice Creates a Buy order (for buying loyalty points) to the PearlZZ Loyalty Points Exchange\r\n\t/// @dev Emits BuyOrderEvent\r\n\t/// @param addToIssuer A loyalty issuer name\r\n\t/// @param addToAccount A loyalty account for this given loyalty issuer\r\n\t/// @param addToUser A user who owns the loyalty account\r\n\t/// @param numOfPoints Number of points to Buy from the PearlZZ Points Exchange\r\n\t/// @return OrderId for the newly created buy order\r\n\tfunction buyPoints(string memory addToIssuer, string memory addToAccount, \r\n\t\t\t\t\t\tstring memory addToUser, uint256 numOfPoints) public returns(uint256) {\r\n\t\tnumOfBuyOrders = numOfBuyOrders.add(1);\r\n\t\tbuyOrders[numOfBuyOrders] = BuyOrderStruct(numOfBuyOrders, addToIssuer, addToAccount, \r\n\t\t\t\t\t\t\t\t\t\t\t\t\t\t\t\t\taddToUser, numOfPoints, \r\n\t\t\t\t\t\t\t\t\t\t\t\t\t\t\t\t\tblock.timestamp);\r\n\t\temit BuyOrderEvent(buyOrders[numOfBuyOrders]);\r\n\t\treturn(numOfBuyOrders);\r\n\t} // buyPoints\r\n\r\n\t/// @notice fulfillABuyOrder\r\n\t/// @notice This is meant for fulfillment of a buy order on the PearlZZ Points Exchange Orderbook\r\n\t/// @dev\r\n\t/// @param buyOrderId An Order which is being fulfilled by selling points from a seller's loyalty account\r\n\t/// @param takeFromIssuer An Issuer whose Loyalty Liability will reduce by numOfPoints from the fulfillment Buy Order\r\n\t/// @param takeFromAccount User's Loyalty Account from which points will be sold to fulfill the buy order\r\n\t///\t@param takeFromUser User who is fulfilling the Buy Order\r\n\t/// @return buyOrderId the same orderId which was chosen for fulfillment by the user from the PearlZZ DApp\r\n\t/// @return sellOrderId Newly created sellOrder to fulfill the buyOrder\r\n\tfunction fulfillABuyOrder(uint256 buyOrderId, string memory takeFromIssuer, \r\n\t\t\t\t\t\tstring memory takeFromAccount, string memory takeFromUser) public  returns(uint256, uint256) {\r\n\t\trequire(buyOrderId > 0 && buyOrderId <= numOfBuyOrders, \"Error: orderId out of valid range. Invalid Id.\");\r\n\t\trequire(!buyOrdersFulfilled[buyOrderId], \"Error: Buy Order already fulfilled.\");\r\n\t\trequire(!buyOrdersCancelled[buyOrderId], \"Error: Buy Order already cancelled.\");\r\n\t\tBuyOrderStruct storage buyOrder = buyOrders[buyOrderId];\r\n\t\tuint256 sellOrderId = sellPoints(takeFromIssuer, takeFromAccount, \r\n\t\t\t\t\t\t\t\t\t\t\t\t\t\ttakeFromUser, buyOrder.numOfPoints);\r\n\t\temit FulfilledBuyOrderEvent(buyOrderId, sellOrderId, block.timestamp);\r\n\t\tbuyOrdersFulfilled[buyOrderId] = true;\r\n\t\tnumOfFulfilledOrders = numOfFulfilledOrders.add(1);\r\n\t\treturn(buyOrderId, sellOrderId);\r\n\t} // fulfillABuyOrder\r\n\r\n\t///\t@notice sellPoints\r\n\t/// @notice Creates a Sell order (for selling loyalty points) to the PearlZZ Loyalty Points Exchange\r\n\t/// @dev Emits SellOrderEvent\r\n\t/// @param takeFromIssuer A loyalty issuer name\r\n\t/// @param takeFromAccount A loyalty account for this given loyalty issuer\r\n\t/// @param takeFromUser A user who owns the loyalty account\r\n\t/// @param numOfPoints Number of points to Sell on the PearlZZ Points Exchange\r\n\t/// @return OrderId for the newly created sell order\r\n\tfunction sellPoints(string memory takeFromIssuer, string memory takeFromAccount, \r\n\t\t\t\t\t\t\tstring memory takeFromUser, uint256 numOfPoints ) public  returns(uint256) {\r\n\t\tnumOfSellOrders = numOfSellOrders.add(1);\r\n\t\tsellOrders[numOfSellOrders] = SellOrderStruct(numOfSellOrders, takeFromIssuer, \r\n\t\t\t\t\t\t\t\t\t\t\t\t\t\t\t\t\t\ttakeFromAccount, takeFromUser, \r\n\t\t\t\t\t\t\t\t\t\t\t\t\t\t\t\t\t\tnumOfPoints, block.timestamp);\r\n\t\temit SellOrderEvent(sellOrders[numOfSellOrders]);\r\n\t\treturn(numOfSellOrders);\r\n\t} // sellPoints()\r\n\r\n\t/// @notice fulfillASellOrder\r\n\t/// @notice This is meant for fulfillment of a sell order on the PearlZZ Points Exchange Orderbook\r\n\t/// @dev Emits FulfilledSellOrderEvent(sellOrderId, buyOrderId, timestamp)\r\n\t/// @param sellOrderId An Order which is being fulfilled by buying points for a buyer's loyalty account\r\n\t/// @param addToIssuer An Issuer whose Loyalty Liability will increase by numOfPoints from the fulfillment Buy Order\r\n\t/// @param addToAccount User's Loyalty Account to which points will be added to fulfill the sell order\r\n\t///\t@param addToUser User who is fulfilling the Sell Order\r\n\t/// @return sellOrderId the same orderId which was chosen for fulfillment by the user from the PearlZZ DApp\r\n\t/// @return buyOrderId Newly created buyOrder to fulfill the sellOrder\r\n\tfunction fulfillASellOrder(uint256 sellOrderId, string memory addToIssuer, \r\n\t\t\t\t\t\t\tstring memory addToAccount, string memory addToUser) public  returns(uint256, uint256) {\r\n\t\trequire(sellOrderId > 0 && sellOrderId <= numOfSellOrders, \"Error: orderId out of valid range. Invalid Id.\");\r\n\t\trequire(!sellOrdersFulfilled[sellOrderId], \"Error: Sell Order already fulfilled.\");\r\n\t\trequire(!sellOrdersCancelled[sellOrderId], \"Error: Sell Order already cancelled.\");\r\n\t\tSellOrderStruct storage sellOrder = sellOrders[sellOrderId];\r\n\t\tuint256 buyOrderId = buyPoints(addToIssuer, addToAccount, addToUser, sellOrder.numOfPoints);\r\n\t\temit FulfilledSellOrderEvent(sellOrderId, buyOrderId, block.timestamp);\r\n\t\tsellOrdersFulfilled[sellOrderId] = true;\r\n\t\tnumOfFulfilledOrders = numOfFulfilledOrders.add(1);\r\n\t\treturn(sellOrderId, buyOrderId);\r\n\t} // fulfillSellOrder\r\n\r\n\t/// @notice transferPoints\r\n\t/// @notice This is meant for a consumer to transfer points across their own two different loyalty accounts \r\n\t/// @dev Emits TransferOrderEvent(buyOrderId, sellOrderId, timestamp)\r\n\t/// @param addToIssuer loyalty points will be added to this Issuer, increading their loyalty liability\r\n\t/// @param addToAccount loyalty points will be added to this account\r\n\t///\t@param takeFromIssuer loyalty points will be taken from this Issuer, reducing their loyalty liability\r\n\t/// @param takeFromAccount loyalty points will be taken from this account\r\n\t/// @param addToTakeFromUser a consumer / user who is transferring their points from one account to another\r\n\t/// @param numOfPoints is the number of loyalty points to be transferred from one account to another\r\n\t/// @return buyOrderId order for the Buy side of the transfer\r\n\t/// @return sellOrderId order for the Sell side of the transfer\r\n\tfunction transferPoints(\r\n\t\t\t\t\t\t\t\t\t\t\t\t\tstring memory addToIssuer, string memory addToAccount,\r\n\t\t\t\t\t\t\t\t\t\t\t\t\tstring memory takeFromIssuer, string memory takeFromAccount,\r\n\t\t\t\t\t\t\t\t\t\t\t\t\tstring memory addToTakeFromUser, \r\n\t\t\t\t\t\t\t\t\t\t\t\t\tuint256 numOfPoints) public  returns(uint256, uint256) {\r\n\t\tuint256 buyOrderId;\r\n\t\tuint256 sellOrderId;\r\n\t\tbuyOrderId = buyPoints(addToIssuer, addToAccount, addToTakeFromUser, numOfPoints);\r\n\t\t(buyOrderId, sellOrderId) = fulfillABuyOrder(buyOrderId, takeFromIssuer, \r\n\t\t\t\t\t\t\t\t\t\t\t\t\t\t\t\t\t\ttakeFromAccount, addToTakeFromUser);\r\n\t\temit TransferOrderEvent(buyOrderId, sellOrderId, block.timestamp);\r\n\t\treturn(buyOrderId, sellOrderId);\r\n\t} // transferPoints\r\n\r\n\t/// @notice cancelBuyOrder\r\n\t/// @notice cancel a buy order\r\n\t/// @dev this contract keeps the IDs for the buy orders separates from sell orders\r\n\t/// @dev Emits CancelledBuyOrderEvent(BuyOrderStruct)\r\n\t/// @param _orderId Order Id for the buy order to be cancelled\r\n\tfunction cancelBuyOrder(uint256 _orderId) public  {\r\n\t\tBuyOrderStruct storage buyOrder = buyOrders[_orderId];\r\n\t\trequire(buyOrder.orderId == _orderId, \"The order doesn't exist.\"); \r\n\r\n\t\t// in reality we should check if the order cancellation is being requested by the same user \r\n\t\t// who originally created it\r\n\t\t// match msg.sender with the address on the order obejct itself\r\n\t\t// we don't store an address right now, for thie MVP/POC.\r\n\t\t//\r\n\t\tbuyOrdersCancelled[_orderId] = true;\t\r\n\t\temit CancelledBuyOrderEvent(buyOrder);\r\n\t}\t// cancelBuyOrder\r\n\r\n\t/// @notice cancelSellOrder\r\n\t/// @notice cancel a sell order\r\n\t/// @dev this contract keeps the IDs for the sell orders separates from buy orders\r\n\t/// @dev Emits CancelledSellOrderEvent(SellOrderStruct)\r\n\t/// @param _orderId Order Id for the sell order to be cancelled\r\n\tfunction cancelSellOrder(uint256 _orderId) public  {\r\n\t\tSellOrderStruct storage sellOrder = sellOrders[_orderId];\r\n\t\trequire(sellOrder.orderId == _orderId, \"The order doesn't exist.\"); // check if the order actually exists\r\n\t\t// in reality we should check if the order cancellation is being requested by the same user \r\n\t\t// who originally created it\r\n\t\t// match msg.sender with the address on the order obejct itself\r\n\t\t// we don't store an address right now, for thie MVP/POC.\r\n\t\t//\r\n\t\tsellOrdersCancelled[_orderId] = true;\t\r\n\t\temit CancelledSellOrderEvent(sellOrder);\r\n\t}\t// cancelSellOrder\r\n\r\n\t/// @notice mint PRLZ tokens\r\n\t/// @notice Use this when onboarding the Loyalty Liability from a Loyalty Issuer \r\n\t/// @notice Or when increasing an existing liability commitment from already onboard Loyalty Issuer\r\n\t/// @dev This contract will not provide an option to decrease the Staked Loyalty Liability once committed\r\n\t/// @param _stakedLoyaltyLiability is the Loyalty liability that a Loyalty Issuer is bringing to PearlZZ\r\n\t/// @param _totalPtsPromised is the total number of loyalty points that an issuer has promised to its customers\r\n\t/// @return minted boolean (true or false)\r\n  function mint(uint256 _stakedLoyaltyLiability, uint256 _totalPtsPromised) public onlyOwner returns(bool minted) {\r\n\t\tminted = pearlzzToken.mint(_stakedLoyaltyLiability, _totalPtsPromised);\r\n\t\treturn(minted);\r\n\t} // mint()\r\n\r\n//\t/// @notice getBuyOrders\r\n//\t/// @return list of all buy orders\r\n//\tfunction getBuyOrders() public view returns(mapping(uint256 => BuyOrderStruct) memory) {\r\n//\t\treturn(buyOrders);\r\n//\t}\r\n//\r\n//\t/// @notice getSellOrders\r\n//\t/// @return list of all sell orders\r\n//\tfunction getSellOrders() public view returns(mapping(uint256 => SellOrderStruct) memory) {\r\n//\t\treturn(sellOrders);\r\n//\t}\r\n//\r\n\r\n\t/// @notice getAccounts\r\n\t/// @return list of account addresses\r\n\tfunction getAccounts() public view onlyOwner returns(address[] memory) {\r\n\t\treturn(accounts);\r\n\t}\r\n\r\n\t/// @notice getPearlZZToken\r\n\t/// @return PearlZZToken contract object\r\n\tfunction getPearlZZToken() public view onlyOwner returns(PearlZZToken) {\r\n\t\treturn(pearlzzToken);\r\n\t}\r\n\r\n\t/// @notice pearlzzTokenName\r\n\t/// @return PearlZZ token name as a string\r\n\tfunction pearlzzTokenName() public view returns(string memory) {\r\n\t\treturn(pearlzzToken.name());\t\r\n\t}\r\n\r\n\t/// @notice pearlzzTokenSymbol\r\n\t/// @return PearlZZ token symbol name as a string\r\n\tfunction pearlzzTokenSymbol() public view returns(string memory) {\r\n\t\treturn(pearlzzToken.symbol());\t\r\n\t}\r\n\r\n\t/// @notice pearlzzTokenDecimals\r\n\t/// @return PearlZZ token decimals\r\n\tfunction pearlzzTokenDecimals() public view returns(uint256) {\r\n\t\treturn(pearlzzToken.decimals());\t\r\n\t}\r\n\r\n\t/// @notice pearlzzTokenTotalSupply\r\n\t/// @return PearlZZ token total supply\r\n\tfunction pearlzzTokenTotalSupply() public view returns(uint256) {\r\n\t\treturn(pearlzzToken.totalSupply());\t\r\n\t}\r\n\r\n\t/// @notice pearlzzTokenTotalPtsPromised\r\n\t/// @return PearlZZ token total points promised across all loyalty issuers onboarded\r\n\tfunction pearlzzTokenTotalPtsPromised() public view returns(uint256) {\r\n\t\treturn(pearlzzToken.totalPtsPromised());\t\r\n\t}\r\n} // PearlZZExchange\r\n\r\n",
  "sourcePath": "/mnt/c/pr0/blockchain-developer-bootcamp-final-project/src/contracts/PearlZZExchange.sol",
  "compiler": {
    "name": "solc",
    "version": "0.8.0+commit.c7dfd78e.Emscripten.clang"
  },
  "schemaVersion": "3.4.3",
  "updatedAt": "2021-11-28T16:20:51.136Z",
  "networkType": "ethereum",
  "devdoc": {
    "author": "Kunal R. Shah",
    "details": "The PearlZZToken is a token, but it doesn't yet conform to the ERC20 spec. deliberatelyThe PearlZZToken is meant to be swappable with other ERC20 tokens.It is mainly meant to provide value in terms of loyalty points transferrability / exchange",
    "events": {
      "BuyOrderEvent((uint256,string,string,string,uint256,uint256))": {
        "params": {
          "buyOrder": "is for representing the buy order details in the BuyOrderStruct type"
        }
      },
      "CancelledBuyOrderEvent((uint256,string,string,string,uint256,uint256))": {
        "params": {
          "buyOrder": "is for representing the buy order details in the BuyOrderStruct type"
        }
      },
      "CancelledSellOrderEvent((uint256,string,string,string,uint256,uint256))": {
        "params": {
          "sellOrder": "is for representing the sell order details in the SellOrderStruct type"
        }
      },
      "FulfilledBuyOrderEvent(uint256,uint256,uint256)": {
        "params": {
          "buyOrderId": "is the orderId for the buy order that is being fulfilled",
          "fulfilledTimestamp": "is the timestamp representing the exact time of fulfillment",
          "sellOrderId": "is the orderId for the sell order that is fulfilling the buy order"
        }
      },
      "FulfilledSellOrderEvent(uint256,uint256,uint256)": {
        "params": {
          "buyOrderId": "is the orderId for the buy order that is fulfilling the sell order",
          "sellOrderId": "is the orderId for the sell order that is being fulfilled"
        }
      },
      "SellOrderEvent((uint256,string,string,string,uint256,uint256))": {
        "params": {
          "sellOrder": "is for representing the sell order details in the SellOrderStruct type"
        }
      },
      "SetAccountsEvent(address[])": {
        "details": "this event isn't truly necessary anymore. It doesn't hurt to have it anyway."
      },
      "TransferOrderEvent(uint256,uint256,uint256)": {
        "params": {
          "buyOrderId": "represents the buy-side order (points are added)",
          "sellOrderId": "represents the sell-side order (points are taken and transferred to buy-side)",
          "transferTimestamp": "represents the timestamp of the placement of this transfer order"
        }
      }
    },
    "kind": "dev",
    "methods": {
      "buyPoints(string,string,string,uint256)": {
        "details": "Emits BuyOrderEvent",
        "params": {
          "addToAccount": "A loyalty account for this given loyalty issuer",
          "addToIssuer": "A loyalty issuer name",
          "addToUser": "A user who owns the loyalty account",
          "numOfPoints": "Number of points to Buy from the PearlZZ Points Exchange"
        },
        "returns": {
          "_0": "OrderId for the newly created buy order"
        }
      },
      "cancelBuyOrder(uint256)": {
        "details": "this contract keeps the IDs for the buy orders separates from sell ordersEmits CancelledBuyOrderEvent(BuyOrderStruct)",
        "params": {
          "_orderId": "Order Id for the buy order to be cancelled"
        }
      },
      "cancelSellOrder(uint256)": {
        "details": "this contract keeps the IDs for the sell orders separates from buy ordersEmits CancelledSellOrderEvent(SellOrderStruct)",
        "params": {
          "_orderId": "Order Id for the sell order to be cancelled"
        }
      },
      "constructor": {
        "details": "initialize PearlZZToken"
      },
      "fulfillABuyOrder(uint256,string,string,string)": {
        "details": "@param buyOrderId An Order which is being fulfilled by selling points from a seller's loyalty account",
        "params": {
          "takeFromAccount": "User's Loyalty Account from which points will be sold to fulfill the buy order",
          "takeFromIssuer": "An Issuer whose Loyalty Liability will reduce by numOfPoints from the fulfillment Buy Order",
          "takeFromUser": "User who is fulfilling the Buy Order"
        },
        "returns": {
          "_0": "buyOrderId the same orderId which was chosen for fulfillment by the user from the PearlZZ DApp",
          "_1": "sellOrderId Newly created sellOrder to fulfill the buyOrder"
        }
      },
      "fulfillASellOrder(uint256,string,string,string)": {
        "details": "Emits FulfilledSellOrderEvent(sellOrderId, buyOrderId, timestamp)",
        "params": {
          "addToAccount": "User's Loyalty Account to which points will be added to fulfill the sell order",
          "addToIssuer": "An Issuer whose Loyalty Liability will increase by numOfPoints from the fulfillment Buy Order",
          "addToUser": "User who is fulfilling the Sell Order",
          "sellOrderId": "An Order which is being fulfilled by buying points for a buyer's loyalty account"
        },
        "returns": {
          "_0": "sellOrderId the same orderId which was chosen for fulfillment by the user from the PearlZZ DApp",
          "_1": "buyOrderId Newly created buyOrder to fulfill the sellOrder"
        }
      },
      "getAccounts()": {
        "returns": {
          "_0": "list of account addresses"
        }
      },
      "getPearlZZToken()": {
        "returns": {
          "_0": "PearlZZToken contract object"
        }
      },
      "mint(uint256,uint256)": {
        "details": "This contract will not provide an option to decrease the Staked Loyalty Liability once committed",
        "params": {
          "_stakedLoyaltyLiability": "is the Loyalty liability that a Loyalty Issuer is bringing to PearlZZ",
          "_totalPtsPromised": "is the total number of loyalty points that an issuer has promised to its customers"
        },
        "returns": {
          "minted": "boolean (true or false)"
        }
      },
      "owner()": {
        "details": "Returns the address of the current owner."
      },
      "pearlzzTokenDecimals()": {
        "returns": {
          "_0": "PearlZZ token decimals"
        }
      },
      "pearlzzTokenName()": {
        "returns": {
          "_0": "PearlZZ token name as a string"
        }
      },
      "pearlzzTokenSymbol()": {
        "returns": {
          "_0": "PearlZZ token symbol name as a string"
        }
      },
      "pearlzzTokenTotalPtsPromised()": {
        "returns": {
          "_0": "PearlZZ token total points promised across all loyalty issuers onboarded"
        }
      },
      "pearlzzTokenTotalSupply()": {
        "returns": {
          "_0": "PearlZZ token total supply"
        }
      },
      "renounceOwnership()": {
        "details": "Leaves the contract without owner. It will not be possible to call `onlyOwner` functions anymore. Can only be called by the current owner. NOTE: Renouncing ownership will leave the contract without an owner, thereby removing any functionality that is only available to the owner."
      },
      "sellPoints(string,string,string,uint256)": {
        "details": "Emits SellOrderEvent",
        "params": {
          "numOfPoints": "Number of points to Sell on the PearlZZ Points Exchange",
          "takeFromAccount": "A loyalty account for this given loyalty issuer",
          "takeFromIssuer": "A loyalty issuer name",
          "takeFromUser": "A user who owns the loyalty account"
        },
        "returns": {
          "_0": "OrderId for the newly created sell order"
        }
      },
      "transferOwnership(address)": {
        "details": "Transfers ownership of the contract to a new account (`newOwner`). Can only be called by the current owner."
      },
      "transferPoints(string,string,string,string,string,uint256)": {
        "details": "Emits TransferOrderEvent(buyOrderId, sellOrderId, timestamp)",
        "params": {
          "addToAccount": "loyalty points will be added to this account",
          "addToIssuer": "loyalty points will be added to this Issuer, increading their loyalty liability",
          "addToTakeFromUser": "a consumer / user who is transferring their points from one account to another",
          "numOfPoints": "is the number of loyalty points to be transferred from one account to another",
          "takeFromAccount": "loyalty points will be taken from this account",
          "takeFromIssuer": "loyalty points will be taken from this Issuer, reducing their loyalty liability"
        },
        "returns": {
          "_0": "buyOrderId order for the Buy side of the transfer",
          "_1": "sellOrderId order for the Sell side of the transfer"
        }
      }
    },
    "stateVariables": {
      "numOfBuyOrders": {
        "details": "this buy orders counter is also incremented by 1 while creating a new buy orderThe buy orders counters and the sell orders counters are manintained separately"
      },
      "numOfFulfilledOrders": {
        "details": "please note this counter keeps track of all the fulfilled orders - buy orders and sell orders"
      },
      "numOfSellOrders": {
        "details": "this sell orders counter is also incremented by 1 while creating a new sell orderThe sell orders counters and the buy orders counters are manintained separately"
      }
    },
    "title": "Master contract that manages the functionality of Loyalty Alliances, Loyalty Wallet, Points Exchange",
    "version": 1
  },
  "userdoc": {
    "events": {
      "BuyOrderEvent((uint256,string,string,string,uint256,uint256))": {
        "notice": "BuyOrderEvent is an event that should be emitted for every Buy Order placed"
      },
      "CancelledBuyOrderEvent((uint256,string,string,string,uint256,uint256))": {
        "notice": "CancelledBuyOrderEvent is an event that should be emitted for every Cancellation of a Buy Order"
      },
      "CancelledSellOrderEvent((uint256,string,string,string,uint256,uint256))": {
        "notice": "CancelledSellOrderEvent is an event that should be emitted for every Cancellation of a Sell Order"
      },
      "FulfilledBuyOrderEvent(uint256,uint256,uint256)": {
        "notice": "FulfilledBuyOrderEvent is emitted when a buy order is fulfilled by a corresponding sell order"
      },
      "FulfilledSellOrderEvent(uint256,uint256,uint256)": {
        "notice": "FulfilledSellOrderEvent is emitted when a sell order is fulfilled by a corresponding buy order"
      },
      "SellOrderEvent((uint256,string,string,string,uint256,uint256))": {
        "notice": "SellOrderEvent is an event that should be emitted for every Sell Order placed"
      },
      "SetAccountsEvent(address[])": {
        "notice": "SetAccountsEvent event was used primarily during debugging / learning"
      },
      "TransferOrderEvent(uint256,uint256,uint256)": {
        "notice": "TransferOrderEvent represents a order for transferring points from one loyalty account to another for same user"
      }
    },
    "kind": "user",
    "methods": {
      "accounts(uint256)": {
        "notice": "account addresses provided"
      },
      "buyOrders(uint256)": {
        "notice": "buyOrders is a mapping of buyOrderIds to their respective Order details"
      },
      "buyOrdersCancelled(uint256)": {
        "notice": "buyOrdersCancelled is the mapping of orderIds and the corresponding buy orders that were cancelled"
      },
      "buyOrdersFulfilled(uint256)": {
        "notice": "buyOrdersFulfilled is the mapping of orderIds and the corresponding buy orders that were fulfilled"
      },
      "buyPoints(string,string,string,uint256)": {
        "notice": "buyPointsCreates a Buy order (for buying loyalty points) to the PearlZZ Loyalty Points Exchange"
      },
      "cancelBuyOrder(uint256)": {
        "notice": "cancelBuyOrdercancel a buy order"
      },
      "cancelSellOrder(uint256)": {
        "notice": "cancelSellOrdercancel a sell order"
      },
      "constructor": {
        "notice": "PearlZZExchange Constructor"
      },
      "fulfillABuyOrder(uint256,string,string,string)": {
        "notice": "fulfillABuyOrderThis is meant for fulfillment of a buy order on the PearlZZ Points Exchange Orderbook"
      },
      "fulfillASellOrder(uint256,string,string,string)": {
        "notice": "fulfillASellOrderThis is meant for fulfillment of a sell order on the PearlZZ Points Exchange Orderbook"
      },
      "getAccounts()": {
        "notice": "getAccounts"
      },
      "getPearlZZToken()": {
        "notice": "getPearlZZToken"
      },
      "mint(uint256,uint256)": {
        "notice": "mint PRLZ tokensUse this when onboarding the Loyalty Liability from a Loyalty Issuer Or when increasing an existing liability commitment from already onboard Loyalty Issuer"
      },
      "numOfBuyOrders()": {
        "notice": "numOfBuyOrders represents the total number of buy orders on the exchange"
      },
      "numOfFulfilledOrders()": {
        "notice": "numOfFulfilledOrders represents the number of orders fulfilled across both buy and sell orders"
      },
      "numOfSellOrders()": {
        "notice": "numOfSellOrders represents the total number of sell orders on the exchange"
      },
      "pearlzzToken()": {
        "notice": "pearlZZToken is the instance of the PearlZZToken contract"
      },
      "pearlzzTokenDecimals()": {
        "notice": "pearlzzTokenDecimals"
      },
      "pearlzzTokenName()": {
        "notice": "pearlzzTokenName"
      },
      "pearlzzTokenSymbol()": {
        "notice": "pearlzzTokenSymbol"
      },
      "pearlzzTokenTotalPtsPromised()": {
        "notice": "pearlzzTokenTotalPtsPromised"
      },
      "pearlzzTokenTotalSupply()": {
        "notice": "pearlzzTokenTotalSupply"
      },
      "sellOrders(uint256)": {
        "notice": "sellOrders is a mapping of sellOrderIds to their respective Order details"
      },
      "sellOrdersCancelled(uint256)": {
        "notice": "sellOrdersCancelled is the mapping of orderIds and the corresponding sell orders that were cancelled"
      },
      "sellOrdersFulfilled(uint256)": {
        "notice": "sellOrdersFulfilled is the mapping of orderIds and the corresponding sell orders that were fulfilled"
      },
      "sellPoints(string,string,string,uint256)": {
        "notice": "sellPointsCreates a Sell order (for selling loyalty points) to the PearlZZ Loyalty Points Exchange"
      },
      "transferPoints(string,string,string,string,string,uint256)": {
        "notice": "transferPointsThis is meant for a consumer to transfer points across their own two different loyalty accounts "
      }
    },
    "notice": "This is the main contract for PearlZZ It manages \"Loyalty Alliances\" - an alliance of brands / businesses It allows for alliances at a local town, city, county, state, country, and global levelsIt manages onboarding of Loyalty Issuer's Loyalty Liability stake to PearlZZIt manages individual customers loyalty walletsIt enables a peer-to-peer trading of loyalty points",
    "version": 1
  }
}