{
  "contractName": "PearlZZToken",
  "abi": [
    {
      "inputs": [],
      "stateMutability": "nonpayable",
      "type": "constructor"
    },
    {
      "anonymous": false,
      "inputs": [
        {
          "indexed": false,
          "internalType": "address",
          "name": "addressValue",
          "type": "address"
        }
      ],
      "name": "AddressValue",
      "type": "event"
    },
    {
      "anonymous": false,
      "inputs": [
        {
          "indexed": true,
          "internalType": "address",
          "name": "previousOwner",
          "type": "address"
        },
        {
          "indexed": true,
          "internalType": "address",
          "name": "newOwner",
          "type": "address"
        }
      ],
      "name": "OwnershipTransferred",
      "type": "event"
    },
    {
      "anonymous": false,
      "inputs": [
        {
          "indexed": false,
          "internalType": "string",
          "name": "stringValue",
          "type": "string"
        }
      ],
      "name": "StrValue",
      "type": "event"
    },
    {
      "anonymous": false,
      "inputs": [
        {
          "indexed": false,
          "internalType": "uint256",
          "name": "uintValue",
          "type": "uint256"
        }
      ],
      "name": "UintValue",
      "type": "event"
    },
    {
      "inputs": [],
      "name": "decimals",
      "outputs": [
        {
          "internalType": "uint256",
          "name": "",
          "type": "uint256"
        }
      ],
      "stateMutability": "view",
      "type": "function"
    },
    {
      "inputs": [],
      "name": "name",
      "outputs": [
        {
          "internalType": "string",
          "name": "",
          "type": "string"
        }
      ],
      "stateMutability": "view",
      "type": "function"
    },
    {
      "inputs": [],
      "name": "owner",
      "outputs": [
        {
          "internalType": "address",
          "name": "",
          "type": "address"
        }
      ],
      "stateMutability": "view",
      "type": "function"
    },
    {
      "inputs": [],
      "name": "renounceOwnership",
      "outputs": [],
      "stateMutability": "nonpayable",
      "type": "function"
    },
    {
      "inputs": [],
      "name": "symbol",
      "outputs": [
        {
          "internalType": "string",
          "name": "",
          "type": "string"
        }
      ],
      "stateMutability": "view",
      "type": "function"
    },
    {
      "inputs": [],
      "name": "totalPtsPromised",
      "outputs": [
        {
          "internalType": "uint256",
          "name": "",
          "type": "uint256"
        }
      ],
      "stateMutability": "view",
      "type": "function"
    },
    {
      "inputs": [],
      "name": "totalSupply",
      "outputs": [
        {
          "internalType": "uint256",
          "name": "",
          "type": "uint256"
        }
      ],
      "stateMutability": "view",
      "type": "function"
    },
    {
      "inputs": [
        {
          "internalType": "address",
          "name": "newOwner",
          "type": "address"
        }
      ],
      "name": "transferOwnership",
      "outputs": [],
      "stateMutability": "nonpayable",
      "type": "function"
    },
    {
      "inputs": [],
      "name": "version",
      "outputs": [
        {
          "internalType": "string",
          "name": "",
          "type": "string"
        }
      ],
      "stateMutability": "view",
      "type": "function"
    },
    {
      "inputs": [
        {
          "internalType": "uint256",
          "name": "_stakedLoyaltyLiability",
          "type": "uint256"
        },
        {
          "internalType": "uint256",
          "name": "_totalPtsPromised",
          "type": "uint256"
        }
      ],
      "name": "mint",
      "outputs": [
        {
          "internalType": "bool",
          "name": "minted",
          "type": "bool"
        }
      ],
      "stateMutability": "nonpayable",
      "type": "function"
    }
  ],
  "bytecode": "0x608060405260405180602001604052806000815250600190805190602001906200002b92919062000267565b5060405180602001604052806000815250600290805190602001906200005392919062000267565b506040518060400160405280600381526020017f312e30000000000000000000000000000000000000000000000000000000000081525060039080519060200190620000a192919062000267565b50601260045560006005556000600655348015620000be57600080fd5b50620000f1620000dc6200019b640100000000026401000000009004565b620001a3640100000000026401000000009004565b6040518060400160405280600781526020017f506561726c5a5a00000000000000000000000000000000000000000000000000815250600190805190602001906200013e92919062000267565b506040518060400160405280600481526020017f50524c5a00000000000000000000000000000000000000000000000000000000815250600290805190602001906200018c92919062000267565b5060006005819055506200037c565b600033905090565b60008060009054906101000a900473ffffffffffffffffffffffffffffffffffffffff169050816000806101000a81548173ffffffffffffffffffffffffffffffffffffffff021916908373ffffffffffffffffffffffffffffffffffffffff1602179055508173ffffffffffffffffffffffffffffffffffffffff168173ffffffffffffffffffffffffffffffffffffffff167f8be0079c531659141344cd1fd0a4f28419497f9722a3daafe3b4186f6b6457e060405160405180910390a35050565b828054620002759062000317565b90600052602060002090601f016020900481019282620002995760008555620002e5565b82601f10620002b457805160ff1916838001178555620002e5565b82800160010185558215620002e5579182015b82811115620002e4578251825591602001919060010190620002c7565b5b509050620002f49190620002f8565b5090565b5b8082111562000313576000816000905550600101620002f9565b5090565b600060028204905060018216806200033057607f821691505b602082108114156200034757620003466200034d565b5b50919050565b7f4e487b7100000000000000000000000000000000000000000000000000000000600052602260045260246000fd5b610b17806200038c6000396000f3fe608060405234801561001057600080fd5b50600436106100bb576000357c0100000000000000000000000000000000000000000000000000000000900480635f5ebf87116100835780635f5ebf8714610168578063715018a6146101865780638da5cb5b1461019057806395d89b41146101ae578063f2fde38b146101cc576100bb565b806306fdde03146100c057806318160ddd146100de5780631b2ef1ca146100fc578063313ce5671461012c57806354fd4d501461014a575b600080fd5b6100c86101e8565b6040516100d591906108a8565b60405180910390f35b6100e6610276565b6040516100f3919061090a565b60405180910390f35b6101166004803603810190610111919061072a565b61027c565b604051610123919061088d565b60405180910390f35b61013461033a565b604051610141919061090a565b60405180910390f35b610152610340565b60405161015f91906108a8565b60405180910390f35b6101706103ce565b60405161017d919061090a565b60405180910390f35b61018e6103d4565b005b61019861045c565b6040516101a59190610872565b60405180910390f35b6101b6610485565b6040516101c391906108a8565b60405180910390f35b6101e660048036038101906101e19190610701565b610513565b005b600180546101f590610a12565b80601f016020809104026020016040519081016040528092919081815260200182805461022190610a12565b801561026e5780601f106102435761010080835404028352916020019161026e565b820191906000526020600020905b81548152906001019060200180831161025157829003601f168201915b505050505081565b60055481565b600061028661060b565b73ffffffffffffffffffffffffffffffffffffffff166102a461045c565b73ffffffffffffffffffffffffffffffffffffffff16146102fa576040517f08c379a00000000000000000000000000000000000000000000000000000000081526004016102f1906108ea565b60405180910390fd5b6000905082600560008282546103109190610941565b9250508190555081600660008282546103299190610941565b925050819055506001905092915050565b60045481565b6003805461034d90610a12565b80601f016020809104026020016040519081016040528092919081815260200182805461037990610a12565b80156103c65780601f1061039b576101008083540402835291602001916103c6565b820191906000526020600020905b8154815290600101906020018083116103a957829003601f168201915b505050505081565b60065481565b6103dc61060b565b73ffffffffffffffffffffffffffffffffffffffff166103fa61045c565b73ffffffffffffffffffffffffffffffffffffffff1614610450576040517f08c379a0000000000000000000000000000000000000000000000000000000008152600401610447906108ea565b60405180910390fd5b61045a6000610613565b565b60008060009054906101000a900473ffffffffffffffffffffffffffffffffffffffff16905090565b6002805461049290610a12565b80601f01602080910402602001604051908101604052809291908181526020018280546104be90610a12565b801561050b5780601f106104e05761010080835404028352916020019161050b565b820191906000526020600020905b8154815290600101906020018083116104ee57829003601f168201915b505050505081565b61051b61060b565b73ffffffffffffffffffffffffffffffffffffffff1661053961045c565b73ffffffffffffffffffffffffffffffffffffffff161461058f576040517f08c379a0000000000000000000000000000000000000000000000000000000008152600401610586906108ea565b60405180910390fd5b600073ffffffffffffffffffffffffffffffffffffffff168173ffffffffffffffffffffffffffffffffffffffff1614156105ff576040517f08c379a00000000000000000000000000000000000000000000000000000000081526004016105f6906108ca565b60405180910390fd5b61060881610613565b50565b600033905090565b60008060009054906101000a900473ffffffffffffffffffffffffffffffffffffffff169050816000806101000a81548173ffffffffffffffffffffffffffffffffffffffff021916908373ffffffffffffffffffffffffffffffffffffffff1602179055508173ffffffffffffffffffffffffffffffffffffffff168173ffffffffffffffffffffffffffffffffffffffff167f8be0079c531659141344cd1fd0a4f28419497f9722a3daafe3b4186f6b6457e060405160405180910390a35050565b6000813590506106e681610ab3565b92915050565b6000813590506106fb81610aca565b92915050565b60006020828403121561071357600080fd5b6000610721848285016106d7565b91505092915050565b6000806040838503121561073d57600080fd5b600061074b858286016106ec565b925050602061075c858286016106ec565b9150509250929050565b61076f81610997565b82525050565b61077e816109a9565b82525050565b600061078f82610925565b6107998185610930565b93506107a98185602086016109df565b6107b281610aa2565b840191505092915050565b60006107ca602683610930565b91507f4f776e61626c653a206e6577206f776e657220697320746865207a65726f206160008301527f64647265737300000000000000000000000000000000000000000000000000006020830152604082019050919050565b6000610830602083610930565b91507f4f776e61626c653a2063616c6c6572206973206e6f7420746865206f776e65726000830152602082019050919050565b61086c816109d5565b82525050565b60006020820190506108876000830184610766565b92915050565b60006020820190506108a26000830184610775565b92915050565b600060208201905081810360008301526108c28184610784565b905092915050565b600060208201905081810360008301526108e3816107bd565b9050919050565b6000602082019050818103600083015261090381610823565b9050919050565b600060208201905061091f6000830184610863565b92915050565b600081519050919050565b600082825260208201905092915050565b600061094c826109d5565b9150610957836109d5565b9250827fffffffffffffffffffffffffffffffffffffffffffffffffffffffffffffffff0382111561098c5761098b610a44565b5b828201905092915050565b60006109a2826109b5565b9050919050565b60008115159050919050565b600073ffffffffffffffffffffffffffffffffffffffff82169050919050565b6000819050919050565b60005b838110156109fd5780820151818401526020810190506109e2565b83811115610a0c576000848401525b50505050565b60006002820490506001821680610a2a57607f821691505b60208210811415610a3e57610a3d610a73565b5b50919050565b7f4e487b7100000000000000000000000000000000000000000000000000000000600052601160045260246000fd5b7f4e487b7100000000000000000000000000000000000000000000000000000000600052602260045260246000fd5b6000601f19601f8301169050919050565b610abc81610997565b8114610ac757600080fd5b50565b610ad3816109d5565b8114610ade57600080fd5b5056fea26469706673582212202d3457efcd7a9fe6cf2f20e116b3359f3017c8be14dd9a1838d2650a6411ee4964736f6c63430008000033",
  "immutableReferences": {},
  "source": "// SPDX-License-Identifier: MIT\r\n// pragma solidity >=0.4.22 <0.9.0;\r\n// pragma solidity >=0.7.0 <0.9.0;\r\npragma solidity 0.8.0;\r\n\r\nimport \"openzeppelin-solidity/contracts/utils/math/SafeMath.sol\";\r\nimport \"openzeppelin-solidity/contracts/access/Ownable.sol\";\r\n\r\nimport \"./GenericContract.sol\"; \r\n\r\n/// @title PRLZ Token Contract \r\n/// @author Kunal R. Shah\r\n/// @notice The totalSupply for this contract will start out at zero\r\n/// @notice When a Loyalty Issuer stakes their loyalty liability on PearlZZ.ai, that's when tokens will be minted\r\ncontract PearlZZToken is GenericContract, Ownable {\r\n  using SafeMath for uint;\r\n\r\n  // Variables\r\n\r\n\t/// @notice name represents the name of the PearlZZ Token\r\n  string public name = \"\";\r\n\r\n\t/// @notice symbol is the symbol of the PearlZZ Token (PRLZ)\r\n  string public symbol = \"\";\r\n\r\n\t/// @notice version\r\n  string public version = '1.0'; \r\n\r\n\t/// @notice decimals represents the number of decimals for the token\r\n  uint256 public decimals = 18;\r\n\r\n\t/// @notice totalSupply represent the total supply of tokens\r\n\t/// @notice this totalSupply of PearlZZToken increases with each new Loyalty Issuer onboarded to PearlZZ\r\n  uint256 public totalSupply = 0;\r\n\r\n\t/// @notice totalPtsPromised is meant to represent the collective number of loyalty points taked by loyalty issuers \r\n\tuint256 public totalPtsPromised = 0;\r\n\r\n// balanceOf variable isn't currently being used. \r\n// But, it could be used to keep an account of the loyalty liability amount staked by each loyalty issuer\r\n// Given that this contract does't use Loyalty Issuer crypto addresses yet\r\n// -- it needs at least an issuer name to keep track of loyality liability amounts per issuer\r\n// -- double check if this is already being tracked in PearlZZExchaneg contract first\r\n// mapping(address => uint256) public balanceOf;\r\n\r\n\r\n\t/// @notice PearlZZToken Constructor\r\n\t/// @notice Tokens will only be minted when a loyalty issuer stakes some of its loyalty liability to PearlZZ\r\n\t/// @dev Each token will be an equivalent of 1 USD\r\n\tconstructor() {\r\n    name = \"PearlZZ\";\r\n    symbol = \"PRLZ\";\r\n\t\t//\r\n\t\t// Initial PearlZZ supply from the constructor's point of view is going to be Zero. \r\n\t\t// We can change this later, if we feel it is necessary.\r\n\t\t// \r\n\t\t// The only the way the token gets minted is when a Issuer is onboarded \r\n\t\t// or when an existing Issuer is adding more of their Loyalty Liability\r\n\t\t//\r\n\t\ttotalSupply = 0;\r\n//    balanceOf[msg.sender] = totalSupply; \r\n\r\n\t} // constructor\r\n\r\n\t/// @notice Use this when onboarding the Loyalty Liability from a Loyalty Issuer \r\n\t/// @notice Or when increasing an existing liability commitment from already onboard Loyalty Issuer\r\n\t/// @dev This contract will not provide an option to decrease the Staked Loyalty Liability once committed\r\n\t/// @param _stakedLoyaltyLiability is the Loyalty liability that a Loyalty Issuer is bringing to PearlZZ\r\n\t/// @param _totalPtsPromised is the total number of loyalty points that an issuer has promised to its customers\r\n\t/// @return minted boolean (true or false)\r\n\tfunction mint(uint256 _stakedLoyaltyLiability, uint256 _totalPtsPromised) public onlyOwner returns(bool minted) {\r\n\r\n\t\tminted = false;\r\n\t\ttotalSupply += _stakedLoyaltyLiability; // does this need to be converted to wei value\r\n\t\ttotalPtsPromised += _totalPtsPromised;\r\n//\t\tbalanceOf[msg.sender] = totalSupply * (10 ** decimals);\r\n\r\n\t\tminted = true;\r\n\t\treturn(minted);\r\n\t} // function mint()\r\n\r\n} // PearlZZToken\r\n\r\n",
  "sourcePath": "/mnt/c/pr0/blockchain-developer-bootcamp-final-project/src/contracts/PearlZZToken.sol",
  "compiler": {
    "name": "solc",
    "version": "0.8.0+commit.c7dfd78e.Emscripten.clang"
  },
  "schemaVersion": "3.4.3",
  "updatedAt": "2021-11-27T18:57:11.857Z",
  "devdoc": {
    "author": "Kunal R. Shah",
    "kind": "dev",
    "methods": {
      "constructor": {
        "details": "Each token will be an equivalent of 1 USD"
      },
      "mint(uint256,uint256)": {
        "details": "This contract will not provide an option to decrease the Staked Loyalty Liability once committed",
        "params": {
          "_stakedLoyaltyLiability": "is the Loyalty liability that a Loyalty Issuer is bringing to PearlZZ",
          "_totalPtsPromised": "is the total number of loyalty points that an issuer has promised to its customers"
        },
        "returns": {
          "minted": "boolean (true or false)"
        }
      },
      "owner()": {
        "details": "Returns the address of the current owner."
      },
      "renounceOwnership()": {
        "details": "Leaves the contract without owner. It will not be possible to call `onlyOwner` functions anymore. Can only be called by the current owner. NOTE: Renouncing ownership will leave the contract without an owner, thereby removing any functionality that is only available to the owner."
      },
      "transferOwnership(address)": {
        "details": "Transfers ownership of the contract to a new account (`newOwner`). Can only be called by the current owner."
      }
    },
    "title": "PRLZ Token Contract ",
    "version": 1
  },
  "userdoc": {
    "kind": "user",
    "methods": {
      "constructor": {
        "notice": "PearlZZToken ConstructorTokens will only be minted when a loyalty issuer stakes some of its loyalty liability to PearlZZ"
      },
      "decimals()": {
        "notice": "decimals represents the number of decimals for the token"
      },
      "mint(uint256,uint256)": {
        "notice": "Use this when onboarding the Loyalty Liability from a Loyalty Issuer Or when increasing an existing liability commitment from already onboard Loyalty Issuer"
      },
      "name()": {
        "notice": "name represents the name of the PearlZZ Token"
      },
      "symbol()": {
        "notice": "symbol is the symbol of the PearlZZ Token (PRLZ)"
      },
      "totalPtsPromised()": {
        "notice": "totalPtsPromised is meant to represent the collective number of loyalty points taked by loyalty issuers "
      },
      "totalSupply()": {
        "notice": "totalSupply represent the total supply of tokensthis totalSupply of PearlZZToken increases with each new Loyalty Issuer onboarded to PearlZZ"
      },
      "version()": {
        "notice": "version"
      }
    },
    "notice": "The totalSupply for this contract will start out at zeroWhen a Loyalty Issuer stakes their loyalty liability on PearlZZ.ai, that's when tokens will be minted",
    "version": 1
  }
}